{
  "address": "0x183f3424De62E59b36f54fb6B246F748a1dc9fD6",
  "abi": [
    {
      "inputs": [
        {
          "internalType": "address",
          "name": "_usdtToken",
          "type": "address"
        }
      ],
      "stateMutability": "nonpayable",
      "type": "constructor"
    },
    {
      "anonymous": false,
      "inputs": [
        {
          "indexed": true,
          "internalType": "address",
          "name": "admin",
          "type": "address"
        }
      ],
      "name": "AdminAdded",
      "type": "event"
    },
    {
      "anonymous": false,
      "inputs": [
        {
          "indexed": true,
          "internalType": "address",
          "name": "admin",
          "type": "address"
        }
      ],
      "name": "AdminRemoved",
      "type": "event"
    },
    {
      "anonymous": false,
      "inputs": [
        {
          "indexed": true,
          "internalType": "uint256",
          "name": "projectId",
          "type": "uint256"
        },
        {
          "indexed": false,
          "internalType": "uint256",
          "name": "timestamp",
          "type": "uint256"
        }
      ],
      "name": "ConstructionCompleted",
      "type": "event"
    },
    {
      "anonymous": false,
      "inputs": [
        {
          "indexed": true,
          "internalType": "uint256",
          "name": "projectId",
          "type": "uint256"
        },
        {
          "indexed": false,
          "internalType": "uint256",
          "name": "energyAmount",
          "type": "uint256"
        },
        {
          "indexed": false,
          "internalType": "uint256",
          "name": "cost",
          "type": "uint256"
        },
        {
          "indexed": false,
          "internalType": "uint256",
          "name": "timestamp",
          "type": "uint256"
        },
        {
          "indexed": false,
          "internalType": "string",
          "name": "notes",
          "type": "string"
        }
      ],
      "name": "EnergyRecorded",
      "type": "event"
    },
    {
      "anonymous": false,
      "inputs": [
        {
          "indexed": true,
          "internalType": "uint256",
          "name": "projectId",
          "type": "uint256"
        },
        {
          "indexed": false,
          "internalType": "uint256",
          "name": "timestamp",
          "type": "uint256"
        }
      ],
      "name": "FundingCompleted",
      "type": "event"
    },
    {
      "anonymous": false,
      "inputs": [
        {
          "indexed": true,
          "internalType": "uint256",
          "name": "projectId",
          "type": "uint256"
        },
        {
          "indexed": false,
          "internalType": "uint256",
          "name": "timestamp",
          "type": "uint256"
        },
        {
          "indexed": false,
          "internalType": "uint256",
          "name": "totalInvested",
          "type": "uint256"
        },
        {
          "indexed": false,
          "internalType": "uint256",
          "name": "targetAmount",
          "type": "uint256"
        }
      ],
      "name": "FundingFailed",
      "type": "event"
    },
    {
      "anonymous": false,
      "inputs": [
        {
          "indexed": true,
          "internalType": "uint256",
          "name": "projectId",
          "type": "uint256"
        },
        {
          "indexed": true,
          "internalType": "address",
          "name": "investor",
          "type": "address"
        },
        {
          "indexed": false,
          "internalType": "uint256",
          "name": "amount",
          "type": "uint256"
        }
      ],
      "name": "InterestClaimed",
      "type": "event"
    },
    {
      "anonymous": false,
      "inputs": [
        {
          "indexed": true,
          "internalType": "uint256",
          "name": "projectId",
          "type": "uint256"
        },
        {
          "indexed": true,
          "internalType": "address",
          "name": "investor",
          "type": "address"
        },
        {
          "indexed": false,
          "internalType": "uint256",
          "name": "amount",
          "type": "uint256"
        }
      ],
      "name": "InvestmentMade",
      "type": "event"
    },
    {
      "anonymous": false,
      "inputs": [
        {
          "indexed": true,
          "internalType": "uint256",
          "name": "projectId",
          "type": "uint256"
        },
        {
          "indexed": false,
          "internalType": "uint256",
          "name": "transactionIndex",
          "type": "uint256"
        },
        {
          "indexed": false,
          "internalType": "string",
          "name": "txHash",
          "type": "string"
        }
      ],
      "name": "OffRampCompleted",
      "type": "event"
    },
    {
      "anonymous": false,
      "inputs": [
        {
          "indexed": true,
          "internalType": "uint256",
          "name": "projectId",
          "type": "uint256"
        },
        {
          "indexed": false,
          "internalType": "uint256",
          "name": "usdtAmount",
          "type": "uint256"
        },
        {
          "indexed": false,
          "internalType": "uint256",
          "name": "fiatAmount",
          "type": "uint256"
        },
        {
          "indexed": false,
          "internalType": "string",
          "name": "provider",
          "type": "string"
        },
        {
          "indexed": false,
          "internalType": "string",
          "name": "purpose",
          "type": "string"
        }
      ],
      "name": "OffRampInitiated",
      "type": "event"
    },
    {
      "anonymous": false,
      "inputs": [
        {
          "indexed": true,
          "internalType": "uint256",
          "name": "projectId",
          "type": "uint256"
        },
        {
          "indexed": false,
          "internalType": "uint256",
          "name": "transactionIndex",
          "type": "uint256"
        },
        {
          "indexed": false,
          "internalType": "string",
          "name": "txHash",
          "type": "string"
        }
      ],
      "name": "OnRampCompleted",
      "type": "event"
    },
    {
      "anonymous": false,
      "inputs": [
        {
          "indexed": true,
          "internalType": "uint256",
          "name": "projectId",
          "type": "uint256"
        },
        {
          "indexed": false,
          "internalType": "uint256",
          "name": "fiatAmount",
          "type": "uint256"
        },
        {
          "indexed": false,
          "internalType": "uint256",
          "name": "usdtAmount",
          "type": "uint256"
        },
        {
          "indexed": false,
          "internalType": "string",
          "name": "provider",
          "type": "string"
        },
        {
          "indexed": false,
          "internalType": "string",
          "name": "source",
          "type": "string"
        }
      ],
      "name": "OnRampInitiated",
      "type": "event"
    },
    {
      "anonymous": false,
      "inputs": [
        {
          "indexed": true,
          "internalType": "address",
          "name": "previousOwner",
          "type": "address"
        },
        {
          "indexed": true,
          "internalType": "address",
          "name": "newOwner",
          "type": "address"
        }
      ],
      "name": "OwnershipTransferred",
      "type": "event"
    },
    {
      "anonymous": false,
      "inputs": [
        {
          "indexed": true,
          "internalType": "uint256",
          "name": "projectId",
          "type": "uint256"
        },
        {
          "indexed": true,
          "internalType": "address",
          "name": "investor",
          "type": "address"
        },
        {
          "indexed": false,
          "internalType": "uint256",
          "name": "amount",
          "type": "uint256"
        }
      ],
      "name": "PrincipalClaimed",
      "type": "event"
    },
    {
      "anonymous": false,
      "inputs": [
        {
          "indexed": true,
          "internalType": "uint256",
          "name": "projectId",
          "type": "uint256"
        },
        {
          "indexed": false,
          "internalType": "string",
          "name": "name",
          "type": "string"
        },
        {
          "indexed": true,
          "internalType": "address",
          "name": "owner",
          "type": "address"
        },
        {
          "indexed": false,
          "internalType": "uint256",
          "name": "targetAmount",
          "type": "uint256"
        }
      ],
      "name": "ProjectCreated",
      "type": "event"
    },
    {
      "anonymous": false,
      "inputs": [
        {
          "indexed": true,
          "internalType": "uint256",
          "name": "projectId",
          "type": "uint256"
        },
        {
          "indexed": true,
          "internalType": "address",
          "name": "investor",
          "type": "address"
        },
        {
          "indexed": false,
          "internalType": "uint256",
          "name": "amount",
          "type": "uint256"
        }
      ],
      "name": "RefundClaimed",
      "type": "event"
    },
    {
      "inputs": [],
      "name": "PRINCIPAL_PAYBACK_DELAY",
      "outputs": [
        {
          "internalType": "uint256",
          "name": "",
          "type": "uint256"
        }
      ],
      "stateMutability": "view",
      "type": "function"
    },
    {
      "inputs": [],
      "name": "PRINCIPAL_PAYBACK_RATE",
      "outputs": [
        {
          "internalType": "uint256",
          "name": "",
          "type": "uint256"
        }
      ],
      "stateMutability": "view",
      "type": "function"
    },
    {
      "inputs": [],
      "name": "TIER1_MAX",
      "outputs": [
        {
          "internalType": "uint256",
          "name": "",
          "type": "uint256"
        }
      ],
      "stateMutability": "view",
      "type": "function"
    },
    {
      "inputs": [],
      "name": "TIER1_RATE",
      "outputs": [
        {
          "internalType": "uint256",
          "name": "",
          "type": "uint256"
        }
      ],
      "stateMutability": "view",
      "type": "function"
    },
    {
      "inputs": [],
      "name": "TIER2_MAX",
      "outputs": [
        {
          "internalType": "uint256",
          "name": "",
          "type": "uint256"
        }
      ],
      "stateMutability": "view",
      "type": "function"
    },
    {
      "inputs": [],
      "name": "TIER2_RATE",
      "outputs": [
        {
          "internalType": "uint256",
          "name": "",
          "type": "uint256"
        }
      ],
      "stateMutability": "view",
      "type": "function"
    },
    {
      "inputs": [],
      "name": "TIER3_RATE",
      "outputs": [
        {
          "internalType": "uint256",
          "name": "",
          "type": "uint256"
        }
      ],
      "stateMutability": "view",
      "type": "function"
    },
    {
      "inputs": [],
      "name": "WEEK_IN_SECONDS",
      "outputs": [
        {
          "internalType": "uint256",
          "name": "",
          "type": "uint256"
        }
      ],
      "stateMutability": "view",
      "type": "function"
    },
    {
      "inputs": [],
      "name": "YEAR_IN_SECONDS",
      "outputs": [
        {
          "internalType": "uint256",
          "name": "",
          "type": "uint256"
        }
      ],
      "stateMutability": "view",
      "type": "function"
    },
    {
      "inputs": [
        {
          "internalType": "address",
          "name": "_admin",
          "type": "address"
        }
      ],
      "name": "addAdmin",
      "outputs": [],
      "stateMutability": "nonpayable",
      "type": "function"
    },
    {
      "inputs": [
        {
          "internalType": "address",
          "name": "",
          "type": "address"
        }
      ],
      "name": "admins",
      "outputs": [
        {
          "internalType": "bool",
          "name": "",
          "type": "bool"
        }
      ],
      "stateMutability": "view",
      "type": "function"
    },
    {
      "inputs": [
        {
          "internalType": "uint256",
          "name": "_projectId",
          "type": "uint256"
        },
        {
          "internalType": "address",
          "name": "_investor",
          "type": "address"
        }
      ],
      "name": "calculateAvailableInterest",
      "outputs": [
        {
          "internalType": "uint256",
          "name": "",
          "type": "uint256"
        }
      ],
      "stateMutability": "view",
      "type": "function"
    },
    {
      "inputs": [
        {
          "internalType": "uint256",
          "name": "_projectId",
          "type": "uint256"
        },
        {
          "internalType": "address",
          "name": "_investor",
          "type": "address"
        }
      ],
      "name": "calculateAvailablePrincipal",
      "outputs": [
        {
          "internalType": "uint256",
          "name": "",
          "type": "uint256"
        }
      ],
      "stateMutability": "view",
      "type": "function"
    },
    {
      "inputs": [
        {
          "internalType": "uint256",
          "name": "_projectId",
          "type": "uint256"
        }
      ],
      "name": "claimInterest",
      "outputs": [],
      "stateMutability": "nonpayable",
      "type": "function"
    },
    {
      "inputs": [
        {
          "internalType": "uint256",
          "name": "_projectId",
          "type": "uint256"
        }
      ],
      "name": "claimPrincipal",
      "outputs": [],
      "stateMutability": "nonpayable",
      "type": "function"
    },
    {
      "inputs": [
        {
          "internalType": "uint256",
          "name": "_projectId",
          "type": "uint256"
        }
      ],
      "name": "claimRefund",
      "outputs": [],
      "stateMutability": "nonpayable",
      "type": "function"
    },
    {
      "inputs": [
        {
          "internalType": "uint256",
          "name": "_projectId",
          "type": "uint256"
        }
      ],
      "name": "completeConstruction",
      "outputs": [],
      "stateMutability": "nonpayable",
      "type": "function"
    },
    {
      "inputs": [
        {
          "internalType": "uint256",
          "name": "_projectId",
          "type": "uint256"
        },
        {
          "internalType": "uint256",
          "name": "_transactionIndex",
          "type": "uint256"
        },
        {
          "internalType": "string",
          "name": "_txHash",
          "type": "string"
        }
      ],
      "name": "completeOffRamp",
      "outputs": [],
      "stateMutability": "nonpayable",
      "type": "function"
    },
    {
      "inputs": [
        {
          "internalType": "uint256",
          "name": "_projectId",
          "type": "uint256"
        },
        {
          "internalType": "uint256",
          "name": "_transactionIndex",
          "type": "uint256"
        },
        {
          "internalType": "string",
          "name": "_txHash",
          "type": "string"
        }
      ],
      "name": "completeOnRamp",
      "outputs": [],
      "stateMutability": "nonpayable",
      "type": "function"
    },
    {
      "inputs": [
        {
          "internalType": "string",
          "name": "_name",
          "type": "string"
        },
        {
          "internalType": "string",
          "name": "_description",
          "type": "string"
        },
        {
          "internalType": "string",
          "name": "_location",
          "type": "string"
        },
        {
          "internalType": "enum SandBlock.ProjectType",
          "name": "_projectType",
          "type": "uint8"
        },
        {
          "internalType": "uint256",
          "name": "_targetAmount",
          "type": "uint256"
        },
        {
          "internalType": "uint256",
          "name": "_fundingDurationDays",
          "type": "uint256"
        }
      ],
      "name": "createProject",
      "outputs": [
        {
          "internalType": "uint256",
          "name": "",
          "type": "uint256"
        }
      ],
      "stateMutability": "nonpayable",
      "type": "function"
    },
    {
      "inputs": [
        {
          "internalType": "uint256",
          "name": "_amount",
          "type": "uint256"
        }
      ],
      "name": "depositPayoutFunds",
      "outputs": [],
      "stateMutability": "nonpayable",
      "type": "function"
    },
    {
      "inputs": [
        {
          "internalType": "uint256",
          "name": "",
          "type": "uint256"
        },
        {
          "internalType": "uint256",
          "name": "",
          "type": "uint256"
        }
      ],
      "name": "energyRecords",
      "outputs": [
        {
          "internalType": "uint256",
          "name": "energyKWh",
          "type": "uint256"
        },
        {
          "internalType": "uint256",
          "name": "cost",
          "type": "uint256"
        },
        {
          "internalType": "uint256",
          "name": "timestamp",
          "type": "uint256"
        },
        {
          "internalType": "string",
          "name": "notes",
          "type": "string"
        }
      ],
      "stateMutability": "view",
      "type": "function"
    },
    {
      "inputs": [],
      "name": "getContractBalance",
      "outputs": [
        {
          "internalType": "uint256",
          "name": "",
          "type": "uint256"
        }
      ],
      "stateMutability": "view",
      "type": "function"
    },
    {
      "inputs": [
        {
          "internalType": "uint256",
          "name": "_projectId",
          "type": "uint256"
        }
      ],
      "name": "getEnergyRecords",
      "outputs": [
        {
          "components": [
            {
              "internalType": "uint256",
              "name": "energyKWh",
              "type": "uint256"
            },
            {
              "internalType": "uint256",
              "name": "cost",
              "type": "uint256"
            },
            {
              "internalType": "uint256",
              "name": "timestamp",
              "type": "uint256"
            },
            {
              "internalType": "string",
              "name": "notes",
              "type": "string"
            }
          ],
          "internalType": "struct SandBlock.EnergyRecord[]",
          "name": "",
          "type": "tuple[]"
        }
      ],
      "stateMutability": "view",
      "type": "function"
    },
    {
      "inputs": [
        {
          "internalType": "uint256",
          "name": "_projectId",
          "type": "uint256"
        }
      ],
      "name": "getFinancialSummary",
      "outputs": [
        {
          "internalType": "uint256",
          "name": "totalInvested",
          "type": "uint256"
        },
        {
          "internalType": "uint256",
          "name": "totalOffRampedAmount",
          "type": "uint256"
        },
        {
          "internalType": "uint256",
          "name": "totalOnRampedAmount",
          "type": "uint256"
        },
        {
          "internalType": "uint256",
          "name": "offRampCount",
          "type": "uint256"
        },
        {
          "internalType": "uint256",
          "name": "onRampCount",
          "type": "uint256"
        },
        {
          "internalType": "int256",
          "name": "netBalance",
          "type": "int256"
        }
      ],
      "stateMutability": "view",
      "type": "function"
    },
    {
      "inputs": [
        {
          "internalType": "uint256",
          "name": "_amount",
          "type": "uint256"
        }
      ],
      "name": "getInterestRate",
      "outputs": [
        {
          "internalType": "uint256",
          "name": "",
          "type": "uint256"
        }
      ],
      "stateMutability": "pure",
      "type": "function"
    },
    {
      "inputs": [
        {
          "internalType": "uint256",
          "name": "_projectId",
          "type": "uint256"
        },
        {
          "internalType": "address",
          "name": "_investor",
          "type": "address"
        }
      ],
      "name": "getInvestment",
      "outputs": [
        {
          "internalType": "uint256",
          "name": "principalAmount",
          "type": "uint256"
        },
        {
          "internalType": "uint256",
          "name": "principalRemaining",
          "type": "uint256"
        },
        {
          "internalType": "uint256",
          "name": "interestRate",
          "type": "uint256"
        },
        {
          "internalType": "uint256",
          "name": "availableInterest",
          "type": "uint256"
        },
        {
          "internalType": "uint256",
          "name": "availablePrincipal",
          "type": "uint256"
        },
        {
          "internalType": "uint256",
          "name": "totalInterestClaimed",
          "type": "uint256"
        },
        {
          "internalType": "uint256",
          "name": "totalPrincipalClaimed",
          "type": "uint256"
        }
      ],
      "stateMutability": "view",
      "type": "function"
    },
    {
      "inputs": [
        {
          "internalType": "uint256",
          "name": "_projectId",
          "type": "uint256"
        }
      ],
      "name": "getOffRampTransactions",
      "outputs": [
        {
          "components": [
            {
              "internalType": "uint256",
              "name": "usdtAmount",
              "type": "uint256"
            },
            {
              "internalType": "uint256",
              "name": "fiatAmount",
              "type": "uint256"
            },
            {
              "internalType": "uint256",
              "name": "exchangeRate",
              "type": "uint256"
            },
            {
              "internalType": "uint256",
              "name": "timestamp",
              "type": "uint256"
            },
            {
              "internalType": "string",
              "name": "provider",
              "type": "string"
            },
            {
              "internalType": "string",
              "name": "purpose",
              "type": "string"
            },
            {
              "internalType": "string",
              "name": "txHash",
              "type": "string"
            },
            {
              "internalType": "string",
              "name": "bankAccount",
              "type": "string"
            },
            {
              "internalType": "bool",
              "name": "isCompleted",
              "type": "bool"
            }
          ],
          "internalType": "struct SandBlock.OffRampTransaction[]",
          "name": "",
          "type": "tuple[]"
        }
      ],
      "stateMutability": "view",
      "type": "function"
    },
    {
      "inputs": [
        {
          "internalType": "uint256",
          "name": "_projectId",
          "type": "uint256"
        }
      ],
      "name": "getOnRampTransactions",
      "outputs": [
        {
          "components": [
            {
              "internalType": "uint256",
              "name": "fiatAmount",
              "type": "uint256"
            },
            {
              "internalType": "uint256",
              "name": "usdtAmount",
              "type": "uint256"
            },
            {
              "internalType": "uint256",
              "name": "exchangeRate",
              "type": "uint256"
            },
            {
              "internalType": "uint256",
              "name": "timestamp",
              "type": "uint256"
            },
            {
              "internalType": "string",
              "name": "provider",
              "type": "string"
            },
            {
              "internalType": "string",
              "name": "source",
              "type": "string"
            },
            {
              "internalType": "string",
              "name": "txHash",
              "type": "string"
            },
            {
              "internalType": "string",
              "name": "invoiceNumber",
              "type": "string"
            },
            {
              "internalType": "bool",
              "name": "isCompleted",
              "type": "bool"
            }
          ],
          "internalType": "struct SandBlock.OnRampTransaction[]",
          "name": "",
          "type": "tuple[]"
        }
      ],
      "stateMutability": "view",
      "type": "function"
    },
    {
      "inputs": [
        {
          "internalType": "uint256",
          "name": "_projectId",
          "type": "uint256"
        }
      ],
      "name": "getProject",
      "outputs": [
        {
          "internalType": "string",
          "name": "name",
          "type": "string"
        },
        {
          "internalType": "string",
          "name": "description",
          "type": "string"
        },
        {
          "internalType": "string",
          "name": "location",
          "type": "string"
        },
        {
          "internalType": "enum SandBlock.ProjectType",
          "name": "projectType",
          "type": "uint8"
        },
        {
          "internalType": "uint256",
          "name": "targetAmount",
          "type": "uint256"
        },
        {
          "internalType": "uint256",
          "name": "totalInvested",
          "type": "uint256"
        },
        {
          "internalType": "uint256",
          "name": "energyProduced",
          "type": "uint256"
        },
        {
          "internalType": "uint256",
          "name": "totalEnergyCost",
          "type": "uint256"
        },
        {
          "internalType": "address",
          "name": "projectOwner",
          "type": "address"
        },
        {
          "internalType": "bool",
          "name": "isActive",
          "type": "bool"
        },
        {
          "internalType": "bool",
          "name": "isCompleted",
          "type": "bool"
        },
        {
          "internalType": "bool",
          "name": "isFailed",
          "type": "bool"
        }
      ],
      "stateMutability": "view",
      "type": "function"
    },
    {
      "inputs": [
        {
          "internalType": "uint256",
          "name": "_projectId",
          "type": "uint256"
        }
      ],
      "name": "getProjectInvestors",
      "outputs": [
        {
          "internalType": "address[]",
          "name": "",
          "type": "address[]"
        }
      ],
      "stateMutability": "view",
      "type": "function"
    },
    {
      "inputs": [
        {
          "internalType": "uint256",
          "name": "_projectId",
          "type": "uint256"
        }
      ],
      "name": "getProjectTimeline",
      "outputs": [
        {
          "internalType": "uint256",
          "name": "createdAt",
          "type": "uint256"
        },
        {
          "internalType": "uint256",
          "name": "fundingDeadline",
          "type": "uint256"
        },
        {
          "internalType": "uint256",
          "name": "fundingCompletedAt",
          "type": "uint256"
        },
        {
          "internalType": "uint256",
          "name": "constructionCompletedAt",
          "type": "uint256"
        }
      ],
      "stateMutability": "view",
      "type": "function"
    },
    {
      "inputs": [
        {
          "internalType": "uint256",
          "name": "_projectId",
          "type": "uint256"
        },
        {
          "internalType": "uint256",
          "name": "_usdtAmount",
          "type": "uint256"
        },
        {
          "internalType": "uint256",
          "name": "_fiatAmount",
          "type": "uint256"
        },
        {
          "internalType": "string",
          "name": "_provider",
          "type": "string"
        },
        {
          "internalType": "string",
          "name": "_purpose",
          "type": "string"
        },
        {
          "internalType": "string",
          "name": "_bankAccount",
          "type": "string"
        }
      ],
      "name": "initiateOffRamp",
      "outputs": [],
      "stateMutability": "nonpayable",
      "type": "function"
    },
    {
      "inputs": [
        {
          "internalType": "uint256",
          "name": "_projectId",
          "type": "uint256"
        },
        {
          "internalType": "uint256",
          "name": "_fiatAmount",
          "type": "uint256"
        },
        {
          "internalType": "uint256",
          "name": "_usdtAmount",
          "type": "uint256"
        },
        {
          "internalType": "string",
          "name": "_provider",
          "type": "string"
        },
        {
          "internalType": "string",
          "name": "_source",
          "type": "string"
        },
        {
          "internalType": "string",
          "name": "_invoiceNumber",
          "type": "string"
        }
      ],
      "name": "initiateOnRamp",
      "outputs": [],
      "stateMutability": "nonpayable",
      "type": "function"
    },
    {
      "inputs": [
        {
          "internalType": "uint256",
          "name": "_projectId",
          "type": "uint256"
        },
        {
          "internalType": "uint256",
          "name": "_amount",
          "type": "uint256"
        }
      ],
      "name": "investInProject",
      "outputs": [],
      "stateMutability": "nonpayable",
      "type": "function"
    },
    {
      "inputs": [
        {
          "internalType": "uint256",
          "name": "",
          "type": "uint256"
        },
        {
          "internalType": "address",
          "name": "",
          "type": "address"
        }
      ],
      "name": "investments",
      "outputs": [
        {
          "internalType": "uint256",
          "name": "principalAmount",
          "type": "uint256"
        },
        {
          "internalType": "uint256",
          "name": "principalRemaining",
          "type": "uint256"
        },
        {
          "internalType": "uint256",
          "name": "lastInterestClaim",
          "type": "uint256"
        },
        {
          "internalType": "uint256",
          "name": "lastPrincipalClaim",
          "type": "uint256"
        },
        {
          "internalType": "uint256",
          "name": "totalInterestClaimed",
          "type": "uint256"
        },
        {
          "internalType": "uint256",
          "name": "totalPrincipalClaimed",
          "type": "uint256"
        }
      ],
      "stateMutability": "view",
      "type": "function"
    },
    {
      "inputs": [
        {
          "internalType": "address",
          "name": "_address",
          "type": "address"
        }
      ],
      "name": "isAdmin",
      "outputs": [
        {
          "internalType": "bool",
          "name": "",
          "type": "bool"
        }
      ],
      "stateMutability": "view",
      "type": "function"
    },
    {
      "inputs": [
        {
          "internalType": "uint256",
          "name": "_projectId",
          "type": "uint256"
        }
      ],
      "name": "isProjectFundingFailed",
      "outputs": [
        {
          "internalType": "bool",
          "name": "",
          "type": "bool"
        }
      ],
      "stateMutability": "view",
      "type": "function"
    },
    {
      "inputs": [
        {
          "internalType": "uint256",
          "name": "_projectId",
          "type": "uint256"
        }
      ],
      "name": "markFundingFailed",
      "outputs": [],
      "stateMutability": "nonpayable",
      "type": "function"
    },
    {
      "inputs": [
        {
          "internalType": "uint256",
          "name": "",
          "type": "uint256"
        },
        {
          "internalType": "uint256",
          "name": "",
          "type": "uint256"
        }
      ],
      "name": "offRampTransactions",
      "outputs": [
        {
          "internalType": "uint256",
          "name": "usdtAmount",
          "type": "uint256"
        },
        {
          "internalType": "uint256",
          "name": "fiatAmount",
          "type": "uint256"
        },
        {
          "internalType": "uint256",
          "name": "exchangeRate",
          "type": "uint256"
        },
        {
          "internalType": "uint256",
          "name": "timestamp",
          "type": "uint256"
        },
        {
          "internalType": "string",
          "name": "provider",
          "type": "string"
        },
        {
          "internalType": "string",
          "name": "purpose",
          "type": "string"
        },
        {
          "internalType": "string",
          "name": "txHash",
          "type": "string"
        },
        {
          "internalType": "string",
          "name": "bankAccount",
          "type": "string"
        },
        {
          "internalType": "bool",
          "name": "isCompleted",
          "type": "bool"
        }
      ],
      "stateMutability": "view",
      "type": "function"
    },
    {
      "inputs": [
        {
          "internalType": "uint256",
          "name": "",
          "type": "uint256"
        },
        {
          "internalType": "uint256",
          "name": "",
          "type": "uint256"
        }
      ],
      "name": "onRampTransactions",
      "outputs": [
        {
          "internalType": "uint256",
          "name": "fiatAmount",
          "type": "uint256"
        },
        {
          "internalType": "uint256",
          "name": "usdtAmount",
          "type": "uint256"
        },
        {
          "internalType": "uint256",
          "name": "exchangeRate",
          "type": "uint256"
        },
        {
          "internalType": "uint256",
          "name": "timestamp",
          "type": "uint256"
        },
        {
          "internalType": "string",
          "name": "provider",
          "type": "string"
        },
        {
          "internalType": "string",
          "name": "source",
          "type": "string"
        },
        {
          "internalType": "string",
          "name": "txHash",
          "type": "string"
        },
        {
          "internalType": "string",
          "name": "invoiceNumber",
          "type": "string"
        },
        {
          "internalType": "bool",
          "name": "isCompleted",
          "type": "bool"
        }
      ],
      "stateMutability": "view",
      "type": "function"
    },
    {
      "inputs": [],
      "name": "owner",
      "outputs": [
        {
          "internalType": "address",
          "name": "",
          "type": "address"
        }
      ],
      "stateMutability": "view",
      "type": "function"
    },
    {
      "inputs": [],
      "name": "projectCount",
      "outputs": [
        {
          "internalType": "uint256",
          "name": "",
          "type": "uint256"
        }
      ],
      "stateMutability": "view",
      "type": "function"
    },
    {
      "inputs": [
        {
          "internalType": "uint256",
          "name": "",
          "type": "uint256"
        },
        {
          "internalType": "uint256",
          "name": "",
          "type": "uint256"
        }
      ],
      "name": "projectInvestors",
      "outputs": [
        {
          "internalType": "address",
          "name": "",
          "type": "address"
        }
      ],
      "stateMutability": "view",
      "type": "function"
    },
    {
      "inputs": [
        {
          "internalType": "uint256",
          "name": "",
          "type": "uint256"
        }
      ],
      "name": "projects",
      "outputs": [
        {
          "internalType": "uint256",
          "name": "id",
          "type": "uint256"
        },
        {
          "internalType": "string",
          "name": "name",
          "type": "string"
        },
        {
          "internalType": "string",
          "name": "description",
          "type": "string"
        },
        {
          "internalType": "string",
          "name": "location",
          "type": "string"
        },
        {
          "internalType": "enum SandBlock.ProjectType",
          "name": "projectType",
          "type": "uint8"
        },
        {
          "internalType": "uint256",
          "name": "targetAmount",
          "type": "uint256"
        },
        {
          "internalType": "uint256",
          "name": "totalInvested",
          "type": "uint256"
        },
        {
          "internalType": "uint256",
          "name": "energyProduced",
          "type": "uint256"
        },
        {
          "internalType": "uint256",
          "name": "totalEnergyCost",
          "type": "uint256"
        },
        {
          "internalType": "address",
          "name": "projectOwner",
          "type": "address"
        },
        {
          "internalType": "bool",
          "name": "isActive",
          "type": "bool"
        },
        {
          "internalType": "bool",
          "name": "isCompleted",
          "type": "bool"
        },
        {
          "internalType": "bool",
          "name": "isFailed",
          "type": "bool"
        },
        {
          "internalType": "uint256",
          "name": "createdAt",
          "type": "uint256"
        },
        {
          "internalType": "uint256",
          "name": "fundingDeadline",
          "type": "uint256"
        },
        {
          "internalType": "uint256",
          "name": "fundingCompletedAt",
          "type": "uint256"
        },
        {
          "internalType": "uint256",
          "name": "constructionCompletedAt",
          "type": "uint256"
        }
      ],
      "stateMutability": "view",
      "type": "function"
    },
    {
      "inputs": [
        {
          "internalType": "uint256",
          "name": "_projectId",
          "type": "uint256"
        },
        {
          "internalType": "uint256",
          "name": "_energyKWh",
          "type": "uint256"
        },
        {
          "internalType": "uint256",
          "name": "_cost",
          "type": "uint256"
        },
        {
          "internalType": "string",
          "name": "_notes",
          "type": "string"
        }
      ],
      "name": "recordEnergyProduction",
      "outputs": [],
      "stateMutability": "nonpayable",
      "type": "function"
    },
    {
      "inputs": [
        {
          "internalType": "address",
          "name": "_admin",
          "type": "address"
        }
      ],
      "name": "removeAdmin",
      "outputs": [],
      "stateMutability": "nonpayable",
      "type": "function"
    },
    {
      "inputs": [],
      "name": "renounceOwnership",
      "outputs": [],
      "stateMutability": "nonpayable",
      "type": "function"
    },
    {
      "inputs": [
        {
          "internalType": "uint256",
          "name": "_projectId",
          "type": "uint256"
        }
      ],
      "name": "toggleProjectStatus",
      "outputs": [],
      "stateMutability": "nonpayable",
      "type": "function"
    },
    {
      "inputs": [
        {
          "internalType": "uint256",
          "name": "",
          "type": "uint256"
        }
      ],
      "name": "totalOffRamped",
      "outputs": [
        {
          "internalType": "uint256",
          "name": "",
          "type": "uint256"
        }
      ],
      "stateMutability": "view",
      "type": "function"
    },
    {
      "inputs": [
        {
          "internalType": "uint256",
          "name": "",
          "type": "uint256"
        }
      ],
      "name": "totalOnRamped",
      "outputs": [
        {
          "internalType": "uint256",
          "name": "",
          "type": "uint256"
        }
      ],
      "stateMutability": "view",
      "type": "function"
    },
    {
      "inputs": [
        {
          "internalType": "address",
          "name": "newOwner",
          "type": "address"
        }
      ],
      "name": "transferOwnership",
      "outputs": [],
      "stateMutability": "nonpayable",
      "type": "function"
    },
    {
      "inputs": [],
      "name": "usdtToken",
      "outputs": [
        {
          "internalType": "contract IERC20",
          "name": "",
          "type": "address"
        }
      ],
      "stateMutability": "view",
      "type": "function"
    }
  ],
  "transactionHash": "0x1957840e488de42e1485157bb3ba372c9f81a8156a900f2dd43455b1bee0cfb9",
  "args": [
    "0xdf5f69Fbb0E6aF8480Cf9ebefE78dDD1Ea9829a7"
  ],
  "numDeployments": 1,
  "solcInputHash": "8aeeb97d8116f845f4c27a009dc70054",
  "bytecode": "0x608034620000b157601f6200433038819003918201601f19168301916001600160401b03831184841017620000b657808492602094604052833981010312620000b157516001600160a01b039081811690819003620000b15760005460018060a01b0319903382821617600055604051933391167f8be0079c531659141344cd1fd0a4f28419497f9722a3daafe3b4186f6b6457e0600080a36001805560025416176002556142639081620000cd8239f35b600080fd5b634e487b7160e01b600052604160045260246000fdfe608080604052600436101561001357600080fd5b60003560e01c9081630c196a741461336057508063107046bd146132205780631785f53c1461316e57806319ac2756146131515780631e9dbd7214613100578063218aa7731461299e57806324d7806c14611fd057806324ebae691461297f5780632cb3ce8c146129625780632eb375ea14612823578063336f56dc1461244357806336fbad26146124255780633842ced31461236d5780633b6418de1461200f578063429b62e514611fd05780634c366a5314611ea75780634dc72aca14611dce5780635201212414611da257806358a75b0d14611d845780635b7baf6414611bed5780635cd1e1af14611bbe5780635ecd37e214611b9e57806365897dff14611af157806367bb9a48146118ed578063696a3660146116bd5780636ce12c35146116245780636f9fb98a1461159c57806370480275146114a1578063715018a61461144857806373d9d54c146114295780637847ea531461140a578063823abc3a146113de5780638b44da95146113945780638b8a417e146112b15780638c727e711461128b5780638da5cb5b14611262578063a1b236ec14611246578063a98ad46c1461121d578063ac20cb4714611190578063b11b32d214611111578063bf1c5fc814610e63578063c26b6beb14610e3b578063c2e7ed8c14610d79578063c72f7bc414610ca5578063c923e8d314610b0b578063f0a15f1014610aee578063f0f3f2c8146109eb578063f1a0600f146107e3578063f2fde38b1461071a578063f32dbe80146106ec578063f77a74f9146104a8578063f9af0579146102c85763fbe5e5491461026657600080fd5b346102c357610274366135a5565b90600052600760205260406000209081548110156102c357610295916137af565b5080546102bf6001830154926102b2600360028301549201613430565b90604051948594856137cb565b0390f35b600080fd5b346102c3576020806003193601126102c3576004356102e5613954565b80600052600482526040600020916102fd3383613adb565b9283156104635782600052600582526040600020336000528252610329600c60406000209201546138db565b6003820180549092918082111561045b5750915b6301e13380928361034e8242613a19565b048481029481860414901517156104455760059361036b916138ec565b90556001810161037c868254613a19565b90550161038a8482546138ec565b905560025460405163a9059cbb60e01b81523360048201526024810185905291908190839060449082906000906001600160a01b03165af1918215610439577f0fe3f8c8efb598229bc8d84aded15e848dcaf790443655f8088b0e8e57a9d40b926103fd9160009161040c575b50613911565b6040519384523393a360018055005b61042c9150833d8511610432575b610424818361340f565b8101906138f9565b866103f7565b503d61041a565b6040513d6000823e3d90fd5b634e487b7160e01b600052601160045260246000fd5b90509161033d565b60405162461bcd60e51b815260048101839052601f60248201527f4e6f207072696e636970616c20617661696c61626c6520746f20636c61696d006044820152606490fd5b346102c3576104b636613747565b9391906104c1613954565b85600052602094600486526009604060002001549060ff60018060a01b0392838116331480156106df575b80156106c8575b6104fc90613c1b565b60a81c161561068357610510861515613bb8565b612710808602908682041486151715610445578661052d91613a26565b886000526009885260406000209160405191610548836133d8565b878352888a84015260408301524260608301528560808301528460a0830152604051610573816133f4565b6000815260c083015260e08201526000610100820152815491600160401b83101561066d57826105ab9160016105b195018155613646565b90613c58565b6002546040516323b872dd60e01b8152336004820152306024820152604481018790529391879185916064918391600091165af18015610439577ffa60c0a5d5c44a7204e024fcac2728bed5fb5744cf9fd39860f8eda726ed0ac196610624600b92610647966000916106505750613911565b886000525260406000206106398682546138ec565b9055604051948594856140fb565b0390a260018055005b6106679150833d851161043257610424818361340f565b8b6103f7565b634e487b7160e01b600052604160045260246000fd5b60405162461bcd60e51b815260048101889052601960248201527f50726f6a656374206d75737420626520636f6d706c65746564000000000000006044820152606490fd5b5033600090815260038a52604090205482166104f3565b50836000541633146104ec565b346102c35760403660031901126102c357602061071261070a613539565b600435613adb565b604051908152f35b346102c35760203660031901126102c357610733613523565b61073b6137ee565b6001600160a01b0390811690811561078f57600054826bffffffffffffffffffffffff60a01b821617600055167f8be0079c531659141344cd1fd0a4f28419497f9722a3daafe3b4186f6b6457e0600080a3005b60405162461bcd60e51b815260206004820152602660248201527f4f776e61626c653a206e6577206f776e657220697320746865207a65726f206160448201526564647265737360d01b6064820152608490fd5b346102c3576020806003193601126102c3576004359081600052600481526040600020600981019081549160ff8360b01c166109a85760ff8360a81c1661096357600c82015461091e57600b8201544211156108db576005600683015492015492838310156108965762ff00ff60a01b1916600160b01b17905560408051428152938401919091528201527feb9cd70f55b7cb93db8903f4881b451ac1def7aed2a6c850e1db2b2e47598e1390606090a2005b60405162461bcd60e51b815260048101869052601960248201527f54617267657420616d6f756e74207761732072656163686564000000000000006044820152606490fd5b6064846040519062461bcd60e51b825280600483015260248201527f46756e64696e6720646561646c696e65206e6f742072656163686564207965746044820152fd5b60405162461bcd60e51b815260048101859052601e60248201527f50726f6a6563742066756e64696e6720776173207375636365737366756c00006044820152606490fd5b60405162461bcd60e51b815260048101859052601c60248201527f50726f6a65637420697320616c726561647920636f6d706c65746564000000006044820152606490fd5b6064846040519062461bcd60e51b825280600483015260248201527f50726f6a65637420616c7265616479206d61726b6564206173206661696c65646044820152fd5b346102c35760203660031901126102c3576004356000526004602052610a78604060002060ff60048201541660ff600583015460068401546007850154600886015491600987015493610a9f610a94610a4660018b01613430565b99610a86610a626003610a5b60028501613430565b9301613430565b916040519d8e9d8e6101809081815201906134d6565b8d810360208f0152906134d6565b908b820360408d01526134d6565b9760608a0190613516565b608088015260a087015260c086015260e085015260018060a01b038116610100850152818160a01c161515610120850152818160a81c16151561014085015260b01c1615156101608301520390f35b346102c35760003660031901126102c35760206040516102bc8152f35b346102c3576020806003193601126102c357600054600435916001600160a01b0391821633148015610c8d575b610b4190613871565b8260005260048152604060002060098101805460ff8160a81c16610c4857600c83015415610c035761ffff60a01b1916600160a81b17905542600d91909101556000838152600682526040812091905b8254811015610bd757610bd2908560005260058352604060002085610bb6838761372f565b90549060031b1c166000528352426002604060002001556138cc565b610b91565b847fdb8b43cf4104775d6bc9772d3965dad38620ee2d87071ebfe54c521f7b208d6683604051428152a2005b60405162461bcd60e51b815260048101859052601960248201527f46756e64696e67206e6f7420636f6d706c6574656420796574000000000000006044820152606490fd5b60405162461bcd60e51b815260048101859052601960248201527f50726f6a65637420616c726561647920636f6d706c65746564000000000000006044820152606490fd5b5033600090815260038252604090205460ff16610b38565b346102c3576020806003193601126102c35760043560005260099081815260406000208054610cd381613c04565b93610ce1604051958661340f565b8185528385018093600052846000206000915b848310610d5757604080518881528951818a01819052600092600582901b83018101918a918c9085015b828710610d2b5785850386f35b909192938280610d47600193603f198a820301865288516135bb565b9601920196019592919092610d1e565b8387600192610d68859b9a9b6141a7565b815201920192019190969596610cf4565b346102c3576020806003193601126102c357600435908160005260048152604060002090600881526040600020549160098252600660406000205491015492600a83526040600020549260008486039412858512811690868613901516176104455785600052600b815260406000205493600085820195861291129080158216911516176104455760c095600052600a8152604060002054600b82526040600020549160405196875286015260408501526060840152608083015260a0820152f35b346102c35760203660031901126102c3576020610e596004356139aa565b6040519015158152f35b346102c357610e7136613747565b90610e7d949294613954565b8560005260209460048652604060002092600984019060018060a01b03948583541633148015611104575b80156110ec575b610eb890613c1b565b60056006820154910154116110b057610ed2861515613bb8565b6024888660025416604051928380926370a0823160e01b82523060048301525afa90811561043957600091611083575b50861161103e576127108088029088820414881517156104455786610f2691613a26565b91896000526008895260406000209160405193610f42856133d8565b888552898b86015260408501524260608501528460808501528560a0850152604051610f6d816133f4565b6000815260c085015260e08401526000610100840152815495600160401b87101561066d57610fab8a946105ab898b966001610fe69c018155613646565b8060025416915416600060405180988195829463a9059cbb60e01b84526004840160209093929193604081019460018060a01b031681520152565b03925af18015610439577f681988798e0babbbc05649f4853d55fa617e9833e7f775284d78c590a41a5d5396611029600a92610647966000916106505750613911565b886000525260406000206106398582546138ec565b60405162461bcd60e51b815260048101899052601d60248201527f496e73756666696369656e7420636f6e74726163742062616c616e63650000006044820152606490fd5b90508881813d83116110a9575b61109a818361340f565b810103126102c357518a610f02565b503d611090565b60405162461bcd60e51b815260048101899052601460248201527346756e64696e67206e6f7420636f6d706c65746560601b6044820152606490fd5b5033600090815260038a52604090205460ff16610eaf565b5085600054163314610ea8565b346102c35760403660031901126102c35761112a613539565b600435600052600560205260406000209060018060a01b031660005260205260c0604060002080549060018101549060028101546003820154906005600484015493015493604051958652602086015260408501526060840152608083015260a0820152f35b346102c35761119e366135a5565b90600052600960205260406000209081548110156102c3576111bf91613646565b5080546102bf60018301549260028101549060038101546111e260048301613430565b6111ee60058401613430565b906111fb60068501613430565b9260ff600861120c60078801613430565b9601541695604051998a998a613678565b346102c35760003660031901126102c3576002546040516001600160a01b039091168152602090f35b346102c35760003660031901126102c357602060405160148152f35b346102c35760003660031901126102c3576000546040516001600160a01b039091168152602090f35b346102c35760403660031901126102c35760206107126112a9613539565b600435613a46565b346102c35760203660031901126102c3576004356000526004602052600960406000200180549060018060a01b038216330361135a5760ff8260a81c1661131557805460ff60a01b191660a092831c60ff161590921b60ff60a01b16919091179055005b60405162461bcd60e51b815260206004820152601f60248201527f43616e6e6f7420746f67676c6520636f6d706c657465642070726f6a656374006044820152606490fd5b60405162461bcd60e51b815260206004820152601260248201527127b7363c90383937b532b1ba1037bbb732b960711b6044820152606490fd5b346102c3576113a2366135a5565b906000526006602052604060002080548210156102c3576020916113c59161372f565b905460405160039290921b1c6001600160a01b03168152f35b346102c35760203660031901126102c357600435600052600b6020526020604060002054604051908152f35b346102c35760003660031901126102c35760206040516301e133808152f35b346102c35760003660031901126102c35760206040516303c267008152f35b346102c35760003660031901126102c3576114616137ee565b600080546001600160a01b0319811682556001600160a01b03167f8be0079c531659141344cd1fd0a4f28419497f9722a3daafe3b4186f6b6457e08280a3005b346102c35760203660031901126102c3576114ba613523565b6114c26137ee565b6001600160a01b0316801561155f5780600052600360205260ff60406000205416611527578060005260036020526040600020600160ff198254161790557f44d6d25963f097ad14f29f06854a01f575648a1ef82f30e562ccd3889717e339600080a2005b60405162461bcd60e51b815260206004820152601060248201526f20b63932b0b23c9030b71030b236b4b760811b6044820152606490fd5b60405162461bcd60e51b8152602060048201526015602482015274496e76616c69642061646d696e206164647265737360581b6044820152606490fd5b346102c35760003660031901126102c3576002546040516370a0823160e01b815230600482015290602090829060249082906001600160a01b03165afa8015610439576000906115f2575b602090604051908152f35b506020813d821161161c575b8161160b6020938361340f565b810103126102c357602090516115e7565b3d91506115fe565b346102c35760403660031901126102c35760e0600435611642613539565b90806000526005602052604060002060018060a01b038316600052602052604060002080549260018201549261168b61167a86613846565b926116858184613a46565b92613adb565b916005600485015494015494604051968752602087015260408601526060850152608084015260a083015260c0820152f35b346102c3576116cb366136e7565b9190816000526020906004825260018060a01b03806009604060002001541633149081156118df575b5080156118c7575b61170590613c1b565b826000526008825261171d604060002054821061412b565b8260005260088252611733816040600020613646565b506006600882019182549261174b60ff851615614167565b6001809460ff191617905501908551906001600160401b03821161066d576117738354613383565b601f811161187e575b5084601f83116001146117f4579180806117e495937ffc5f5190994aca5adf8b3eeed900d1cb87dac7db0f43e920401c927ccc05f7da999a956000936117e9575b501b916000199060031b1c19161790555b60408051948594855284015260408301906134d6565b0390a2005b86015192508b6117bd565b601f9291921982169084600052866000209160005b81811061186957509183916117e496947ffc5f5190994aca5adf8b3eeed900d1cb87dac7db0f43e920401c927ccc05f7da9a9b969410611850575b5050811b0190556117ce565b85015160001960f88460031b161c191690558980611844565b8a830151845592850192918801918801611809565b8360005285600020601f840160051c8101918785106118bd575b601f0160051c019082905b8281106118b157505061177c565b600081550182906118a3565b9091508190611898565b5033600090815260038352604090205460ff166116fc565b9050600054163314856116f4565b346102c3576118fb366136e7565b9190816000526020906004825260018060a01b0380600960406000200154163314908115611ae3575b508015611acb575b61193590613c1b565b826000526009825261194d604060002054821061412b565b8260005260098252611963816040600020613646565b506006600882019182549261197b60ff851615614167565b6001809460ff191617905501908551906001600160401b03821161066d576119a38354613383565b601f8111611a82575b5084601f8311600114611a12579180806117e495937f2b41742b39181e87f05eda476eef357710a35e01baaa8f5ad1ec5c7d31d2643a999a956000936117e957501b916000199060031b1c191617905560408051948594855284015260408301906134d6565b601f9291921982169084600052866000209160005b818110611a6d57509183916117e496947f2b41742b39181e87f05eda476eef357710a35e01baaa8f5ad1ec5c7d31d2643a9a9b969410611850575050811b0190556117ce565b8a830151845592850192918801918801611a27565b8360005285600020601f840160051c810191878510611ac1575b601f0160051c019082905b828110611ab55750506119ac565b60008155018290611aa7565b9091508190611a9c565b5033600090815260038352604090205460ff1661192c565b905060005416331485611924565b346102c35760203660031901126102c35760006020611b5f600435611b14613954565b611b1f811515613bb8565b6002546040516323b872dd60e01b81523360048201523060248201526044810192909252909384926001600160a01b039092169183919082906064820190565b03925af1801561043957611b7a91600091611b805750613911565b60018055005b611b98915060203d811161043257610424818361340f565b826103f7565b346102c35760003660031901126102c35760206040516404a817c8008152f35b346102c357611bcc366135a5565b90600052600860205260406000209081548110156102c3576111bf91613646565b346102c3576020806003193601126102c357600435611c0a613954565b8060005260048252604060002060058352604060002033600052835260ff6009604060002092015460b01c1615611d4657805415611d0157600101918254928315611cc35760009081905560025460405163a9059cbb60e01b8152336004820152602481018690529291829184916044918391906001600160a01b03165af1918215610439577ff3f402280ef0a7905e124aa621b65eaeb2725c343e8b36d398ed78c29daf285c926103fd9160009161040c5750613911565b60405162461bcd60e51b81526004810183905260166024820152751499599d5b9908185b1c9958591e4818db185a5b595960521b6044820152606490fd5b60405162461bcd60e51b815260048101849052601760248201527f4e6f20696e766573746d656e7420746f20726566756e640000000000000000006044820152606490fd5b60405162461bcd60e51b8152600481018490526016602482015275141c9bda9958dd081a185cc81b9bdd0819985a5b195960521b6044820152606490fd5b346102c35760003660031901126102c357602060405162093a808152f35b346102c35760203660031901126102c357600435600052600a6020526020604060002054604051908152f35b346102c3576020806003193601126102c35760043560005260088152604060002090815491611dfc83613c04565b92611e0a604051948561340f565b8084528284018092600052836000206000915b838310611e845750505050604051918083019381845251809452604083019360408160051b85010192916000955b828710611e585785850386f35b909192938280611e74600193603f198a820301865288516135bb565b9601920196019592919092611e4b565b600986600192611e96859a999a6141a7565b815201920192019190959495611e1d565b346102c3576020806003193601126102c35760043560005260078152604060002090815491611ed583613c04565b92611ee3604051948561340f565b8084528284018092600052836000206000915b838310611f835750505050604051918083019381845251809452604083019360408160051b85010192916000955b828710611f315785850386f35b909192938280611f73600193603f198a8203018652885180518252838101518483015260408101516040830152606080910151916080809282015201906134d6565b9601920196019592919092611f24565b600486600192604099989951611f98816133bd565b85548152848601548382015260028601546040820152611fba60038701613430565b6060820152815201920192019190959495611ef6565b346102c35760203660031901126102c3576001600160a01b03611ff1613523565b166000526003602052602060ff604060002054166040519015158152f35b346102c35760803660031901126102c357602460043581356044356001600160401b036064358181116102c35761204a90369060040161354f565b9060018060a01b036000541633148015612354575b61206890613871565b8460005260209060048252604060002060ff600982015460a81c16156123105785156122c157806007600892016120a08882546138ec565b9055016120ae8582546138ec565b905585600052600782526040600020604051926120ca846133bd565b86845280840193868552604081019442865260608201958787528454600160401b8110156122ac576121039060019687820181556137af565b92909261229757600393518355518583015551600282015501935198895193841161228357506121338454613383565b601f811161223a575b5080601f84116001146121aa5750918080926117e49695947f514c998a16580e1ba03e1179e301e9db683d0a0d7437634b24e9637d60b84ea39a9b60009461219f575b50501b916000199060031b1c19161790555b6040519384934291856137cb565b015192508b8061217f565b91939498601f1984168660005283600020936000905b828210612223575050917f514c998a16580e1ba03e1179e301e9db683d0a0d7437634b24e9637d60b84ea3999a959391856117e49896941061220a575b505050811b019055612191565b015160001960f88460031b161c191690558980806121fd565b8088869782949787015181550196019401906121c0565b8460005281600020601f850160051c810191838610612279575b601f0160051c019083905b82811061226d57505061213c565b6000815501839061225f565b9091508190612254565b634e487b7160e01b60009081526041600452fd5b8c634e487b7160e01b60005260006004526000fd5b8c634e487b7160e01b60005260416004526000fd5b608483896040519162461bcd60e51b83526004830152808201527f456e6572677920616d6f756e74206d75737420626520677265617465722074686044820152630616e20360e41b6064820152fd5b60405162461bcd60e51b815260048101849052601f818a01527f50726f6a656374206d75737420626520636f6d706c65746564206669727374006044820152606490fd5b503360009081526003602052604090205460ff1661205f565b346102c3576020806003193601126102c35760043560005260068152604060002060405190818382549182815201908192600052846000209060005b868282106124085786866123bf8288038361340f565b604051928392818401908285525180915260408401929160005b8281106123e857505050500390f35b83516001600160a01b0316855286955093810193928101926001016123d9565b83546001600160a01b0316855290930192600192830192016123a9565b346102c35760003660031901126102c3576020600c54604051908152f35b346102c357612451366135a5565b9061245a613954565b80600052602060048152604060002090600982015460ff8160a01c16156127e65760ff8160a81c166127975760b01c60ff1661275357600b820154421161270f5783156126ba5760068201916124b18584546138ec565b926005820193845410612677576002546040516323b872dd60e01b8152336004820152306024820152604481018890526001600160a01b0395918590829060649082906000908b165af18015610439576125129160009161265a5750613911565b856000526005845260406000203360005284526040600020948554156125e1575b50600185612563897f89728d542d77fad9fe42c7d1f032c2b85f64cf938d754183b0e95359fbfac8a198546138ec565b8155016125718882546138ec565b905561257e8783546138ec565b809255541115806125d5575b61259f575b506040519384523393a360018055005b600c42910155827facef193e0e86e1befd5fb43ab2e5687427446a96568ffb8cb4f7d588c79f6c9582604051428152a28461258f565b50600c8101541561258a565b8660005260068552604060002095865491600160401b83101561066d57612630837f89728d542d77fad9fe42c7d1f032c2b85f64cf938d754183b0e95359fbfac8a1996001809601815561372f565b819291549060031b91821b809233901b169119161790554260028201554260038201559550612533565b6126719150863d881161043257610424818361340f565b896103f7565b6064836040519062461bcd60e51b825280600483015260248201527f496e766573746d656e7420657863656564732074617267657420616d6f756e746044820152fd5b6084906040519062461bcd60e51b82526004820152602860248201527f496e766573746d656e7420616d6f756e74206d75737420626520677265617465604482015267072207468616e20360c41b6064820152fd5b6064906040519062461bcd60e51b82526004820152601b60248201527f46756e64696e6720646561646c696e65206861732070617373656400000000006044820152fd5b6064906040519062461bcd60e51b82526004820152601a60248201527f50726f6a6563742066756e64696e6720686173206661696c65640000000000006044820152fd5b60405162461bcd60e51b815260048101839052602160248201527f50726f6a65637420636f6e737472756374696f6e20697320636f6d706c6574656044820152601960fa1b6064820152608490fd5b60405162461bcd60e51b815260048101839052601560248201527450726f6a656374206973206e6f742061637469766560581b6044820152606490fd5b346102c3576020806003193601126102c357600435612840613954565b61284a3382613a46565b91821561291e57816000526005815260406000203360005281526040600020600281019081549162093a8092836128818242613a19565b048481029481860414901517156104455760049361289e916138ec565b9055016128ac8482546138ec565b905560025460405163a9059cbb60e01b81523360048201526024810185905291908190839060449082906000906001600160a01b03165af1918215610439577f5bd56c18bcf5c328fa6875f4ee4b28fe6f3188c3805a320276bc47aa87b4de0d926103fd9160009161040c5750613911565b6064906040519062461bcd60e51b82526004820152601e60248201527f4e6f20696e74657265737420617661696c61626c6520746f20636c61696d00006044820152fd5b346102c35760003660031901126102c35760206040516103848152f35b346102c35760003660031901126102c357602060405163773594008152f35b346102c35760c03660031901126102c3576004356001600160401b0381116102c3576129ce90369060040161354f565b6024356001600160401b0381116102c3576129ed90369060040161354f565b906044356001600160401b0381116102c357612a0d90369060040161354f565b90600760643510156102c35760a4359160018060a01b0360005416331480156130e7575b612a3a90613871565b608435156130965782156130415761016d8311612fee57600c5492612a5e846138cc565b600c55620151808082029182040361044557612a7a90426138ec565b906040519461022086018681106001600160401b0382111761066d5760405284865283602087015260408601526060850152606435608085015260843560a0850152600060c0850152600060e0850152600061010085015233610120850152600161014085015260006101608501526000610180850152426101a08501526101c084015260006101e0840152600061020084015281600052600460205260406000208351815560208401518051906001600160401b03821161066d578190612b456001850154613383565b601f8111612f9b575b50602090601f8311600114612f2e57600092612f23575b50508160011b916000199060031b1c19161760018201555b60408401518051906001600160401b03821161066d578190612ba26002850154613383565b601f8111612ed0575b50602090601f8311600114612e6357600092612e58575b50508160011b916000199060031b1c19161760028201555b60608401518051906001600160401b03821161066d578190612bff6003850154613383565b601f8111612e05575b50602090601f8311600114612d9857600092612d8d575b50508160011b916000199060031b1c19161760038201555b6080840151936007851015612d775760048201805460ff90961660ff19969096169590951790945560a080850151600583015560c0850151600683015560e0850151600783015561010085015160088301556101208501516009830180546101408801516001600160a81b03199091166001600160a01b03939093169290921791151590921b60ff60a01b16178155602094600d9161020091906101608201511515815460ff60b01b610180850151151560b01b169160ff60a81b9060a81b169061ffff60a81b1916171790556101a0810151600a8501556101c0810151600b8501556101e0810151600c8501550151910155817fa026ee65bff24e0219543a4cec2746ef952b145e2658ac5db36953d7044712a9612d61604051936040855260408501906134d6565b92608435868201528033940390a3604051908152f35b634e487b7160e01b600052602160045260246000fd5b015190508680612c1f565b600385016000908152602081209350601f198516905b818110612ded5750908460019594939210612dd4575b505050811b016003820155612c37565b015160001960f88460031b161c19169055868080612dc4565b92936020600181928786015181550195019301612dae565b909150600384016000526020600020601f840160051c810160208510612e51575b90849392915b601f830160051c82018110612e42575050612c08565b60008155859450600101612e2c565b5080612e26565b015190508680612bc2565b600285016000908152602081209350601f198516905b818110612eb85750908460019594939210612e9f575b505050811b016002820155612bda565b015160001960f88460031b161c19169055868080612e8f565b92936020600181928786015181550195019301612e79565b909150600284016000526020600020601f840160051c810160208510612f1c575b90849392915b601f830160051c82018110612f0d575050612bab565b60008155859450600101612ef7565b5080612ef1565b015190508680612b65565b600185016000908152602081209350601f198516905b818110612f835750908460019594939210612f6a575b505050811b016001820155612b7d565b015160001960f88460031b161c19169055868080612f5a565b92936020600181928786015181550195019301612f44565b909150600184016000526020600020601f840160051c810160208510612fe7575b90849392915b601f830160051c82018110612fd8575050612b4e565b60008155859450600101612fc2565b5080612fbc565b60405162461bcd60e51b815260206004820152602560248201527f46756e64696e67206475726174696f6e2063616e6e6f74206578636565642031604482015264103cb2b0b960d91b6064820152608490fd5b60405162461bcd60e51b815260206004820152602760248201527f46756e64696e67206475726174696f6e206d75737420626520677265617465726044820152660207468616e20360cc1b6064820152608490fd5b60405162461bcd60e51b8152602060048201526024808201527f54617267657420616d6f756e74206d75737420626520677265617465722074686044820152630616e20360e41b6064820152608490fd5b503360009081526003602052604090205460ff16612a31565b346102c35760203660031901126102c357600435600052600460205260806040600020600a81015490600b81015490600d600c82015491015491604051938452602084015260408301526060820152f35b346102c35760003660031901126102c35760206040516101f48152f35b346102c35760203660031901126102c357613187613523565b61318f6137ee565b6001600160a01b031660008181526003602052604090205460ff16156131ec57806000526003602052604060002060ff1981541690557fa3b62bc36326052d97ea62d63c3d60308ed4c3ea8ac079dd8499f1e9c4f80c0f600080a2005b60405162461bcd60e51b815260206004820152600c60248201526b2737ba1030b71030b236b4b760a11b6044820152606490fd5b346102c35760203660031901126102c3576004356000526004602052604060002080546001820161325090613430565b9161325d60028201613430565b61326960038301613430565b91600481015460ff1692600582015460068301546007840154600885015490600986015492600a87015494600b88015496600c89015498600d0154996040519d8e9d8e528d61022090816020820152016132c2916134d6565b8d810360408f01526132d3916134d6565b8c810360608e01526132e4916134d6565b9960808c016132f291613516565b60a08b015260c08a015260e0890152610100880152600160a01b6001900381166101208801528060a01c60ff1615156101408801528060a81c60ff16151561016088015260b01c60ff1615156101808701526101a08601526101c08501526101e08401526102008301520390f35b346102c35760203660031901126102c35760209061337f600435613846565b8152f35b90600182811c921680156133b3575b602083101461339d57565b634e487b7160e01b600052602260045260246000fd5b91607f1691613392565b608081019081106001600160401b0382111761066d57604052565b61012081019081106001600160401b0382111761066d57604052565b602081019081106001600160401b0382111761066d57604052565b90601f801991011681019081106001600160401b0382111761066d57604052565b906040519182600082549261344484613383565b9081845260019485811690816000146134b35750600114613470575b505061346e9250038361340f565b565b9093915060005260209081600020936000915b81831061349b57505061346e93508201013880613460565b85548884018501529485019487945091830191613483565b91505061346e94506020925060ff191682840152151560051b8201013880613460565b919082519283825260005b848110613502575050826000602080949584010152601f8019910116010190565b6020818301810151848301820152016134e1565b906007821015612d775752565b600435906001600160a01b03821682036102c357565b602435906001600160a01b03821682036102c357565b81601f820112156102c3578035906001600160401b03821161066d5760405192613583601f8401601f19166020018561340f565b828452602083830101116102c357816000926020809301838601378301015290565b60409060031901126102c3576004359060243590565b908151815260208201516020820152604082015160408201526060820151606082015261363661362461361261360060808601516101208060808801528601906134d6565b60a086015185820360a08701526134d6565b60c085015184820360c08601526134d6565b60e084015183820360e08501526134d6565b9161010080910151151591015290565b8054821015613662576000526009602060002091020190600090565b634e487b7160e01b600052603260045260246000fd5b97946136b5906136d19561010099956136c3956136df9a959e9d9e8d5260208d015260408c015260608b01526101208060808c01528a01906134d6565b9088820360a08a01526134d6565b9086820360c08801526134d6565b9084820360e08601526134d6565b931515910152565b60606003198201126102c3576004359160243591604435906001600160401b0382116102c3576137199160040161354f565b90565b8181029291811591840414171561044557565b80548210156136625760005260206000200190600090565b9060c06003198301126102c3576004359160243591604435916001600160401b03916064358381116102c357826137809160040161354f565b926084358181116102c357836137989160040161354f565b9260a4359182116102c3576137199160040161354f565b80548210156136625760005260206000209060021b0190600090565b9092608092613719959483526020830152604082015281606082015201906134d6565b6000546001600160a01b0316330361380257565b606460405162461bcd60e51b815260206004820152602060248201527f4f776e61626c653a2063616c6c6572206973206e6f7420746865206f776e65726044820152fd5b637735940081101561385957506101f490565b6404a817c800111561386b576102bc90565b61038490565b1561387857565b60405162461bcd60e51b815260206004820152602660248201527f4e6f7420617574686f72697a65643a206d757374206265206f776e6572206f726044820152651030b236b4b760d11b6064820152608490fd5b60001981146104455760010190565b906303c26700820180921161044557565b9190820180921161044557565b908160209103126102c3575180151581036102c35790565b1561391857565b60405162461bcd60e51b81526020600482015260146024820152731554d115081d1c985b9cd9995c8819985a5b195960621b6044820152606490fd5b600260015414613965576002600155565b60405162461bcd60e51b815260206004820152601f60248201527f5265656e7472616e637947756172643a207265656e7472616e742063616c6c006044820152606490fd5b60005260046020526040600020600981015460ff8160b01c16613a1257600b82015442119182613a05575b826139f1575b50816139e5575090565b60ff915060a81c161590565b6006810154600590910154119150386139db565b600c8101541592506139d5565b5050600190565b9190820391821161044557565b8115613a30570490565b634e487b7160e01b600052601260045260246000fd5b6000908152600460205260408120916005602052604082209060018060a01b0316825260205260ff60096040832093015460a81c16158015613ad2575b613acd5762093a80613a99600284015442613a19565b04908115613ac757506207ef40613ac1836001613ab96137199654613846565b91015461371c565b0461371c565b91505090565b905090565b50815415613a83565b6000908152600460205260408120916005602052604082209060018060a01b03168252602052600c6040822092015480158015613baf575b613ba9576303c26700613b268242613a19565b10613ba957613b52613b3c6301e13380926138db565b60038501549080821115613ba257505b42613a19565b04908115613ac757825490601482029180830460141490151715613b8e57506001916064613b80920461371c565b910154808211613acd575090565b634e487b7160e01b81526011600452602490fd5b9050613b4c565b50905090565b50825415613b13565b15613bbf57565b60405162461bcd60e51b815260206004820152601d60248201527f416d6f756e74206d7573742062652067726561746572207468616e20300000006044820152606490fd5b6001600160401b03811161066d5760051b60200190565b15613c2257565b60405162461bcd60e51b815260206004820152600e60248201526d139bdd08185d5d1a1bdc9a5e995960921b6044820152606490fd5b906140e557815181556020808301516001908184015560408401516002840155606084015160039081850155600484019160808601518051936001600160401b039485811161066d5780613cac8354613383565b93601f94858111614093575b50889085831160011461403157600092614026575b505060001982871b1c191690841b1790555b600580870160a089015180519087821161066d578190613cff8454613383565b868111613fd7575b508990868311600114613f7557600092613f6a575b505060001982881b1c191690851b1790555b6006870160c089015180519087821161066d578190613d4d8454613383565b868111613f1b575b508990868311600114613eb957600092613eae575b505060001982881b1c191690851b1790555b600787019560e089015191825196871161066d57613d9a8854613383565b90848211613e6a575b505080928611600114613df657509284809361010098969360089896600095613deb575b50501b92600019911b1c19161790555b01910151151560ff80198354169116179055565b015193503880613dc7565b9294939190601f1985168760005284600020946000905b828210613e5357505091859391600898966101009a98969410613e39575b50505050811b019055613dd7565b01519060f884600019921b161c1916905538808080613e2b565b808986988294978701518155019701940190613e0d565b88600052826000209085808a01821c830193858b10613ea5575b01901c019085905b828110613e995750613da3565b60008155018590613e8c565b93508293613e84565b015190503880613d6a565b90879350601f19831691856000528b6000209260005b8d828210613f055750508411613eed575b505050811b019055613d7c565b0151600019838a1b60f8161c19169055388080613ee0565b8385015186558b97909501949384019301613ecf565b909150836000528960002086808501871c8201928c8610613f61575b9189918695949301881c01915b828110613f52575050613d55565b60008155859450899101613f44565b92508192613f37565b015190503880613d1c565b90879350601f19831691856000528b6000209260005b8d828210613fc15750508411613fa9575b505050811b019055613d2e565b0151600019838a1b60f8161c19169055388080613f9c565b8385015186558b97909501949384019301613f8b565b909150836000528960002086808501871c8201928c861061401d575b9189918695949301881c01915b82811061400e575050613d07565b60008155859450899101614000565b92508192613ff3565b015190503880613ccd565b90869350601f19831691856000528a6000209260005b8c82821061407d5750508411614065575b505050811b019055613cdf565b015160001983891b60f8161c19169055388080614058565b8385015186558a97909501949384019301614047565b90915060008481528981208680860160051c8201938c87106140dc575b91899187969594930160051c01925b8381106140ce57505050613cb8565b8281558695508991016140bf565b935081936140b0565b634e487b7160e01b600052600060045260246000fd5b92613719949261411d92855260208501526080604085015260808401906134d6565b9160608184039101526134d6565b1561413257565b60405162461bcd60e51b815260206004820152600d60248201526c092dcecc2d8d2c840d2dcc8caf609b1b6044820152606490fd5b1561416e57565b60405162461bcd60e51b8152602060048201526011602482015270105b1c9958591e4818dbdb5c1b195d1959607a1b6044820152606490fd5b906040516141b4816133d8565b61010060ff60088395805485526001810154602086015260028101546040860152600381015460608601526141eb60048201613430565b60808601526141fc60058201613430565b60a086015261420d60068201613430565b60c086015261421e60078201613430565b60e0860152015416151591015256fea26469706673582212208af30611802b3cb10be73431aba086088585b65468c3710cd4de2dc3c8ca3ffa64736f6c63430008110033",
  "devdoc": {
    "details": "Manages tokenized energy projects with tiered interest rates and scheduled paybacks Interest Rates (APY): - < 2000 USDT: 5% per year - 2000 - 20000 USDT: 7% per year - > 20000 USDT: 9% per year Payback Schedule: - Weekly interest payments after project completion - Principal payback: 20% per year starting 2 years after target reached",
    "kind": "dev",
    "methods": {
      "addAdmin(address)": {
        "details": "Add an admin who can create and edit projects",
        "params": {
          "_admin": "Address to add as admin"
        }
      },
      "calculateAvailableInterest(uint256,address)": {
        "details": "Calculate available weekly interest for an investor"
      },
      "calculateAvailablePrincipal(uint256,address)": {
        "details": "Calculate available principal payback for an investor"
      },
      "claimInterest(uint256)": {
        "details": "Claim weekly interest payments"
      },
      "claimPrincipal(uint256)": {
        "details": "Claim principal payback (20% per year starting 2 years after funding)"
      },
      "claimRefund(uint256)": {
        "details": "Claim refund for failed project"
      },
      "completeConstruction(uint256)": {
        "details": "Mark project construction as completed (only project owner)"
      },
      "completeOffRamp(uint256,uint256,string)": {
        "details": "Complete off-ramp transaction (confirm fiat received)",
        "params": {
          "_projectId": "Project ID",
          "_transactionIndex": "Index in offRampTransactions array",
          "_txHash": "Off-chain transaction hash/reference"
        }
      },
      "completeOnRamp(uint256,uint256,string)": {
        "details": "Complete on-ramp transaction (confirm USDT deposited)",
        "params": {
          "_projectId": "Project ID",
          "_transactionIndex": "Index in onRampTransactions array",
          "_txHash": "Off-chain transaction hash/reference"
        }
      },
      "createProject(string,string,string,uint8,uint256,uint256)": {
        "details": "Create a new energy project"
      },
      "depositPayoutFunds(uint256)": {
        "details": "Deposit funds to contract for payouts (project owner)"
      },
      "getContractBalance()": {
        "details": "Get contract USDT balance"
      },
      "getEnergyRecords(uint256)": {
        "details": "Get energy records for a project"
      },
      "getFinancialSummary(uint256)": {
        "details": "Get off-ramp/on-ramp summary for a project"
      },
      "getInterestRate(uint256)": {
        "details": "Calculate interest rate based on investment amount (in basis points)"
      },
      "getInvestment(uint256,address)": {
        "details": "Get investment details for an investor"
      },
      "getOffRampTransactions(uint256)": {
        "details": "Get all off-ramp transactions for a project"
      },
      "getOnRampTransactions(uint256)": {
        "details": "Get all on-ramp transactions for a project"
      },
      "getProject(uint256)": {
        "details": "Get project basic info"
      },
      "getProjectInvestors(uint256)": {
        "details": "Get all investors for a project"
      },
      "getProjectTimeline(uint256)": {
        "details": "Get project timeline info"
      },
      "initiateOffRamp(uint256,uint256,uint256,string,string,string)": {
        "details": "Initiate off-ramp transaction (USDT  Fiat for construction)",
        "params": {
          "_bankAccount": "Last 4 digits of destination bank account",
          "_fiatAmount": "Expected fiat amount in USD cents (e.g., 100000 = $1,000.00)",
          "_projectId": "Project ID",
          "_provider": "Payment provider name (e.g., \"Circle\")",
          "_purpose": "Description of what funds will be used for",
          "_usdtAmount": "Amount of USDT to withdraw (6 decimals)"
        }
      },
      "initiateOnRamp(uint256,uint256,uint256,string,string,string)": {
        "details": "Initiate on-ramp transaction (Fiat  USDT from energy revenue)",
        "params": {
          "_fiatAmount": "Amount of fiat being converted (in USD cents)",
          "_invoiceNumber": "Energy invoice reference",
          "_projectId": "Project ID",
          "_provider": "Payment provider name",
          "_source": "Description of revenue source",
          "_usdtAmount": "Amount of USDT deposited (6 decimals)"
        }
      },
      "investInProject(uint256,uint256)": {
        "details": "Invest in a project with USDT"
      },
      "isAdmin(address)": {
        "details": "Check if an address is an admin",
        "params": {
          "_address": "Address to check"
        }
      },
      "isProjectFundingFailed(uint256)": {
        "details": "Check if project funding has failed (deadline passed without reaching target)"
      },
      "markFundingFailed(uint256)": {
        "details": "Mark project funding as failed if deadline passed without reaching target Can be called by anyone after deadline"
      },
      "owner()": {
        "details": "Returns the address of the current owner."
      },
      "recordEnergyProduction(uint256,uint256,uint256,string)": {
        "details": "Record energy produced with cost (only project owner can call)"
      },
      "removeAdmin(address)": {
        "details": "Remove an admin",
        "params": {
          "_admin": "Address to remove from admins"
        }
      },
      "renounceOwnership()": {
        "details": "Leaves the contract without owner. It will not be possible to call `onlyOwner` functions. Can only be called by the current owner. NOTE: Renouncing ownership will leave the contract without an owner, thereby disabling any functionality that is only available to the owner."
      },
      "toggleProjectStatus(uint256)": {
        "details": "Toggle project active status (only project owner)"
      },
      "transferOwnership(address)": {
        "details": "Transfers ownership of the contract to a new account (`newOwner`). Can only be called by the current owner."
      }
    },
    "title": "SandBlock",
    "version": 1
  },
  "userdoc": {
    "kind": "user",
    "methods": {},
    "version": 1
  },
  "storageLayout": {
    "storage": [
      {
        "astId": 7,
        "contract": "contracts/SandBlock.sol:SandBlock",
        "label": "_owner",
        "offset": 0,
        "slot": "0",
        "type": "t_address"
      },
      {
        "astId": 123,
        "contract": "contracts/SandBlock.sol:SandBlock",
        "label": "_status",
        "offset": 0,
        "slot": "1",
        "type": "t_uint256"
      },
      {
        "astId": 290,
        "contract": "contracts/SandBlock.sol:SandBlock",
        "label": "usdtToken",
        "offset": 0,
        "slot": "2",
        "type": "t_contract(IERC20)255"
      },
      {
        "astId": 294,
        "contract": "contracts/SandBlock.sol:SandBlock",
        "label": "admins",
        "offset": 0,
        "slot": "3",
        "type": "t_mapping(t_address,t_bool)"
      },
      {
        "astId": 402,
        "contract": "contracts/SandBlock.sol:SandBlock",
        "label": "projects",
        "offset": 0,
        "slot": "4",
        "type": "t_mapping(t_uint256,t_struct(Project)384_storage)"
      },
      {
        "astId": 409,
        "contract": "contracts/SandBlock.sol:SandBlock",
        "label": "investments",
        "offset": 0,
        "slot": "5",
        "type": "t_mapping(t_uint256,t_mapping(t_address,t_struct(Investment)397_storage))"
      },
      {
        "astId": 414,
        "contract": "contracts/SandBlock.sol:SandBlock",
        "label": "projectInvestors",
        "offset": 0,
        "slot": "6",
        "type": "t_mapping(t_uint256,t_array(t_address)dyn_storage)"
      },
      {
        "astId": 420,
        "contract": "contracts/SandBlock.sol:SandBlock",
        "label": "energyRecords",
        "offset": 0,
        "slot": "7",
        "type": "t_mapping(t_uint256,t_array(t_struct(EnergyRecord)348_storage)dyn_storage)"
      },
      {
        "astId": 464,
        "contract": "contracts/SandBlock.sol:SandBlock",
        "label": "offRampTransactions",
        "offset": 0,
        "slot": "8",
        "type": "t_mapping(t_uint256,t_array(t_struct(OffRampTransaction)439_storage)dyn_storage)"
      },
      {
        "astId": 470,
        "contract": "contracts/SandBlock.sol:SandBlock",
        "label": "onRampTransactions",
        "offset": 0,
        "slot": "9",
        "type": "t_mapping(t_uint256,t_array(t_struct(OnRampTransaction)458_storage)dyn_storage)"
      },
      {
        "astId": 474,
        "contract": "contracts/SandBlock.sol:SandBlock",
        "label": "totalOffRamped",
        "offset": 0,
        "slot": "10",
        "type": "t_mapping(t_uint256,t_uint256)"
      },
      {
        "astId": 478,
        "contract": "contracts/SandBlock.sol:SandBlock",
        "label": "totalOnRamped",
        "offset": 0,
        "slot": "11",
        "type": "t_mapping(t_uint256,t_uint256)"
      },
      {
        "astId": 480,
        "contract": "contracts/SandBlock.sol:SandBlock",
        "label": "projectCount",
        "offset": 0,
        "slot": "12",
        "type": "t_uint256"
      }
    ],
    "types": {
      "t_address": {
        "encoding": "inplace",
        "label": "address",
        "numberOfBytes": "20"
      },
      "t_array(t_address)dyn_storage": {
        "base": "t_address",
        "encoding": "dynamic_array",
        "label": "address[]",
        "numberOfBytes": "32"
      },
      "t_array(t_struct(EnergyRecord)348_storage)dyn_storage": {
        "base": "t_struct(EnergyRecord)348_storage",
        "encoding": "dynamic_array",
        "label": "struct SandBlock.EnergyRecord[]",
        "numberOfBytes": "32"
      },
      "t_array(t_struct(OffRampTransaction)439_storage)dyn_storage": {
        "base": "t_struct(OffRampTransaction)439_storage",
        "encoding": "dynamic_array",
        "label": "struct SandBlock.OffRampTransaction[]",
        "numberOfBytes": "32"
      },
      "t_array(t_struct(OnRampTransaction)458_storage)dyn_storage": {
        "base": "t_struct(OnRampTransaction)458_storage",
        "encoding": "dynamic_array",
        "label": "struct SandBlock.OnRampTransaction[]",
        "numberOfBytes": "32"
      },
      "t_bool": {
        "encoding": "inplace",
        "label": "bool",
        "numberOfBytes": "1"
      },
      "t_contract(IERC20)255": {
        "encoding": "inplace",
        "label": "contract IERC20",
        "numberOfBytes": "20"
      },
      "t_enum(ProjectType)339": {
        "encoding": "inplace",
        "label": "enum SandBlock.ProjectType",
        "numberOfBytes": "1"
      },
      "t_mapping(t_address,t_bool)": {
        "encoding": "mapping",
        "key": "t_address",
        "label": "mapping(address => bool)",
        "numberOfBytes": "32",
        "value": "t_bool"
      },
      "t_mapping(t_address,t_struct(Investment)397_storage)": {
        "encoding": "mapping",
        "key": "t_address",
        "label": "mapping(address => struct SandBlock.Investment)",
        "numberOfBytes": "32",
        "value": "t_struct(Investment)397_storage"
      },
      "t_mapping(t_uint256,t_array(t_address)dyn_storage)": {
        "encoding": "mapping",
        "key": "t_uint256",
        "label": "mapping(uint256 => address[])",
        "numberOfBytes": "32",
        "value": "t_array(t_address)dyn_storage"
      },
      "t_mapping(t_uint256,t_array(t_struct(EnergyRecord)348_storage)dyn_storage)": {
        "encoding": "mapping",
        "key": "t_uint256",
        "label": "mapping(uint256 => struct SandBlock.EnergyRecord[])",
        "numberOfBytes": "32",
        "value": "t_array(t_struct(EnergyRecord)348_storage)dyn_storage"
      },
      "t_mapping(t_uint256,t_array(t_struct(OffRampTransaction)439_storage)dyn_storage)": {
        "encoding": "mapping",
        "key": "t_uint256",
        "label": "mapping(uint256 => struct SandBlock.OffRampTransaction[])",
        "numberOfBytes": "32",
        "value": "t_array(t_struct(OffRampTransaction)439_storage)dyn_storage"
      },
      "t_mapping(t_uint256,t_array(t_struct(OnRampTransaction)458_storage)dyn_storage)": {
        "encoding": "mapping",
        "key": "t_uint256",
        "label": "mapping(uint256 => struct SandBlock.OnRampTransaction[])",
        "numberOfBytes": "32",
        "value": "t_array(t_struct(OnRampTransaction)458_storage)dyn_storage"
      },
      "t_mapping(t_uint256,t_mapping(t_address,t_struct(Investment)397_storage))": {
        "encoding": "mapping",
        "key": "t_uint256",
        "label": "mapping(uint256 => mapping(address => struct SandBlock.Investment))",
        "numberOfBytes": "32",
        "value": "t_mapping(t_address,t_struct(Investment)397_storage)"
      },
      "t_mapping(t_uint256,t_struct(Project)384_storage)": {
        "encoding": "mapping",
        "key": "t_uint256",
        "label": "mapping(uint256 => struct SandBlock.Project)",
        "numberOfBytes": "32",
        "value": "t_struct(Project)384_storage"
      },
      "t_mapping(t_uint256,t_uint256)": {
        "encoding": "mapping",
        "key": "t_uint256",
        "label": "mapping(uint256 => uint256)",
        "numberOfBytes": "32",
        "value": "t_uint256"
      },
      "t_string_storage": {
        "encoding": "bytes",
        "label": "string",
        "numberOfBytes": "32"
      },
      "t_struct(EnergyRecord)348_storage": {
        "encoding": "inplace",
        "label": "struct SandBlock.EnergyRecord",
        "members": [
          {
            "astId": 341,
            "contract": "contracts/SandBlock.sol:SandBlock",
            "label": "energyKWh",
            "offset": 0,
            "slot": "0",
            "type": "t_uint256"
          },
          {
            "astId": 343,
            "contract": "contracts/SandBlock.sol:SandBlock",
            "label": "cost",
            "offset": 0,
            "slot": "1",
            "type": "t_uint256"
          },
          {
            "astId": 345,
            "contract": "contracts/SandBlock.sol:SandBlock",
            "label": "timestamp",
            "offset": 0,
            "slot": "2",
            "type": "t_uint256"
          },
          {
            "astId": 347,
            "contract": "contracts/SandBlock.sol:SandBlock",
            "label": "notes",
            "offset": 0,
            "slot": "3",
            "type": "t_string_storage"
          }
        ],
        "numberOfBytes": "128"
      },
      "t_struct(Investment)397_storage": {
        "encoding": "inplace",
        "label": "struct SandBlock.Investment",
        "members": [
          {
            "astId": 386,
            "contract": "contracts/SandBlock.sol:SandBlock",
            "label": "principalAmount",
            "offset": 0,
            "slot": "0",
            "type": "t_uint256"
          },
          {
            "astId": 388,
            "contract": "contracts/SandBlock.sol:SandBlock",
            "label": "principalRemaining",
            "offset": 0,
            "slot": "1",
            "type": "t_uint256"
          },
          {
            "astId": 390,
            "contract": "contracts/SandBlock.sol:SandBlock",
            "label": "lastInterestClaim",
            "offset": 0,
            "slot": "2",
            "type": "t_uint256"
          },
          {
            "astId": 392,
            "contract": "contracts/SandBlock.sol:SandBlock",
            "label": "lastPrincipalClaim",
            "offset": 0,
            "slot": "3",
            "type": "t_uint256"
          },
          {
            "astId": 394,
            "contract": "contracts/SandBlock.sol:SandBlock",
            "label": "totalInterestClaimed",
            "offset": 0,
            "slot": "4",
            "type": "t_uint256"
          },
          {
            "astId": 396,
            "contract": "contracts/SandBlock.sol:SandBlock",
            "label": "totalPrincipalClaimed",
            "offset": 0,
            "slot": "5",
            "type": "t_uint256"
          }
        ],
        "numberOfBytes": "192"
      },
      "t_struct(OffRampTransaction)439_storage": {
        "encoding": "inplace",
        "label": "struct SandBlock.OffRampTransaction",
        "members": [
          {
            "astId": 422,
            "contract": "contracts/SandBlock.sol:SandBlock",
            "label": "usdtAmount",
            "offset": 0,
            "slot": "0",
            "type": "t_uint256"
          },
          {
            "astId": 424,
            "contract": "contracts/SandBlock.sol:SandBlock",
            "label": "fiatAmount",
            "offset": 0,
            "slot": "1",
            "type": "t_uint256"
          },
          {
            "astId": 426,
            "contract": "contracts/SandBlock.sol:SandBlock",
            "label": "exchangeRate",
            "offset": 0,
            "slot": "2",
            "type": "t_uint256"
          },
          {
            "astId": 428,
            "contract": "contracts/SandBlock.sol:SandBlock",
            "label": "timestamp",
            "offset": 0,
            "slot": "3",
            "type": "t_uint256"
          },
          {
            "astId": 430,
            "contract": "contracts/SandBlock.sol:SandBlock",
            "label": "provider",
            "offset": 0,
            "slot": "4",
            "type": "t_string_storage"
          },
          {
            "astId": 432,
            "contract": "contracts/SandBlock.sol:SandBlock",
            "label": "purpose",
            "offset": 0,
            "slot": "5",
            "type": "t_string_storage"
          },
          {
            "astId": 434,
            "contract": "contracts/SandBlock.sol:SandBlock",
            "label": "txHash",
            "offset": 0,
            "slot": "6",
            "type": "t_string_storage"
          },
          {
            "astId": 436,
            "contract": "contracts/SandBlock.sol:SandBlock",
            "label": "bankAccount",
            "offset": 0,
            "slot": "7",
            "type": "t_string_storage"
          },
          {
            "astId": 438,
            "contract": "contracts/SandBlock.sol:SandBlock",
            "label": "isCompleted",
            "offset": 0,
            "slot": "8",
            "type": "t_bool"
          }
        ],
        "numberOfBytes": "288"
      },
      "t_struct(OnRampTransaction)458_storage": {
        "encoding": "inplace",
        "label": "struct SandBlock.OnRampTransaction",
        "members": [
          {
            "astId": 441,
            "contract": "contracts/SandBlock.sol:SandBlock",
            "label": "fiatAmount",
            "offset": 0,
            "slot": "0",
            "type": "t_uint256"
          },
          {
            "astId": 443,
            "contract": "contracts/SandBlock.sol:SandBlock",
            "label": "usdtAmount",
            "offset": 0,
            "slot": "1",
            "type": "t_uint256"
          },
          {
            "astId": 445,
            "contract": "contracts/SandBlock.sol:SandBlock",
            "label": "exchangeRate",
            "offset": 0,
            "slot": "2",
            "type": "t_uint256"
          },
          {
            "astId": 447,
            "contract": "contracts/SandBlock.sol:SandBlock",
            "label": "timestamp",
            "offset": 0,
            "slot": "3",
            "type": "t_uint256"
          },
          {
            "astId": 449,
            "contract": "contracts/SandBlock.sol:SandBlock",
            "label": "provider",
            "offset": 0,
            "slot": "4",
            "type": "t_string_storage"
          },
          {
            "astId": 451,
            "contract": "contracts/SandBlock.sol:SandBlock",
            "label": "source",
            "offset": 0,
            "slot": "5",
            "type": "t_string_storage"
          },
          {
            "astId": 453,
            "contract": "contracts/SandBlock.sol:SandBlock",
            "label": "txHash",
            "offset": 0,
            "slot": "6",
            "type": "t_string_storage"
          },
          {
            "astId": 455,
            "contract": "contracts/SandBlock.sol:SandBlock",
            "label": "invoiceNumber",
            "offset": 0,
            "slot": "7",
            "type": "t_string_storage"
          },
          {
            "astId": 457,
            "contract": "contracts/SandBlock.sol:SandBlock",
            "label": "isCompleted",
            "offset": 0,
            "slot": "8",
            "type": "t_bool"
          }
        ],
        "numberOfBytes": "288"
      },
      "t_struct(Project)384_storage": {
        "encoding": "inplace",
        "label": "struct SandBlock.Project",
        "members": [
          {
            "astId": 350,
            "contract": "contracts/SandBlock.sol:SandBlock",
            "label": "id",
            "offset": 0,
            "slot": "0",
            "type": "t_uint256"
          },
          {
            "astId": 352,
            "contract": "contracts/SandBlock.sol:SandBlock",
            "label": "name",
            "offset": 0,
            "slot": "1",
            "type": "t_string_storage"
          },
          {
            "astId": 354,
            "contract": "contracts/SandBlock.sol:SandBlock",
            "label": "description",
            "offset": 0,
            "slot": "2",
            "type": "t_string_storage"
          },
          {
            "astId": 356,
            "contract": "contracts/SandBlock.sol:SandBlock",
            "label": "location",
            "offset": 0,
            "slot": "3",
            "type": "t_string_storage"
          },
          {
            "astId": 359,
            "contract": "contracts/SandBlock.sol:SandBlock",
            "label": "projectType",
            "offset": 0,
            "slot": "4",
            "type": "t_enum(ProjectType)339"
          },
          {
            "astId": 361,
            "contract": "contracts/SandBlock.sol:SandBlock",
            "label": "targetAmount",
            "offset": 0,
            "slot": "5",
            "type": "t_uint256"
          },
          {
            "astId": 363,
            "contract": "contracts/SandBlock.sol:SandBlock",
            "label": "totalInvested",
            "offset": 0,
            "slot": "6",
            "type": "t_uint256"
          },
          {
            "astId": 365,
            "contract": "contracts/SandBlock.sol:SandBlock",
            "label": "energyProduced",
            "offset": 0,
            "slot": "7",
            "type": "t_uint256"
          },
          {
            "astId": 367,
            "contract": "contracts/SandBlock.sol:SandBlock",
            "label": "totalEnergyCost",
            "offset": 0,
            "slot": "8",
            "type": "t_uint256"
          },
          {
            "astId": 369,
            "contract": "contracts/SandBlock.sol:SandBlock",
            "label": "projectOwner",
            "offset": 0,
            "slot": "9",
            "type": "t_address"
          },
          {
            "astId": 371,
            "contract": "contracts/SandBlock.sol:SandBlock",
            "label": "isActive",
            "offset": 20,
            "slot": "9",
            "type": "t_bool"
          },
          {
            "astId": 373,
            "contract": "contracts/SandBlock.sol:SandBlock",
            "label": "isCompleted",
            "offset": 21,
            "slot": "9",
            "type": "t_bool"
          },
          {
            "astId": 375,
            "contract": "contracts/SandBlock.sol:SandBlock",
            "label": "isFailed",
            "offset": 22,
            "slot": "9",
            "type": "t_bool"
          },
          {
            "astId": 377,
            "contract": "contracts/SandBlock.sol:SandBlock",
            "label": "createdAt",
            "offset": 0,
            "slot": "10",
            "type": "t_uint256"
          },
          {
            "astId": 379,
            "contract": "contracts/SandBlock.sol:SandBlock",
            "label": "fundingDeadline",
            "offset": 0,
            "slot": "11",
            "type": "t_uint256"
          },
          {
            "astId": 381,
            "contract": "contracts/SandBlock.sol:SandBlock",
            "label": "fundingCompletedAt",
            "offset": 0,
            "slot": "12",
            "type": "t_uint256"
          },
          {
            "astId": 383,
            "contract": "contracts/SandBlock.sol:SandBlock",
            "label": "constructionCompletedAt",
            "offset": 0,
            "slot": "13",
            "type": "t_uint256"
          }
        ],
        "numberOfBytes": "448"
      },
      "t_uint256": {
        "encoding": "inplace",
        "label": "uint256",
        "numberOfBytes": "32"
      }
    }
  }
}