{
  "address": "0xf28649583Df87f9A549CC6D725b8A64e02156842",
  "abi": [
    {
      "inputs": [
        {
          "internalType": "address",
          "name": "_usdtToken",
          "type": "address"
        }
      ],
      "stateMutability": "nonpayable",
      "type": "constructor"
    },
    {
      "anonymous": false,
      "inputs": [
        {
          "indexed": true,
          "internalType": "address",
          "name": "admin",
          "type": "address"
        }
      ],
      "name": "AdminAdded",
      "type": "event"
    },
    {
      "anonymous": false,
      "inputs": [
        {
          "indexed": true,
          "internalType": "address",
          "name": "admin",
          "type": "address"
        }
      ],
      "name": "AdminRemoved",
      "type": "event"
    },
    {
      "anonymous": false,
      "inputs": [
        {
          "indexed": true,
          "internalType": "uint256",
          "name": "projectId",
          "type": "uint256"
        },
        {
          "indexed": false,
          "internalType": "uint256",
          "name": "timestamp",
          "type": "uint256"
        }
      ],
      "name": "ConstructionCompleted",
      "type": "event"
    },
    {
      "anonymous": false,
      "inputs": [
        {
          "indexed": true,
          "internalType": "uint256",
          "name": "projectId",
          "type": "uint256"
        },
        {
          "indexed": false,
          "internalType": "uint256",
          "name": "energyAmount",
          "type": "uint256"
        },
        {
          "indexed": false,
          "internalType": "uint256",
          "name": "cost",
          "type": "uint256"
        },
        {
          "indexed": false,
          "internalType": "uint256",
          "name": "timestamp",
          "type": "uint256"
        },
        {
          "indexed": false,
          "internalType": "string",
          "name": "notes",
          "type": "string"
        }
      ],
      "name": "EnergyRecorded",
      "type": "event"
    },
    {
      "anonymous": false,
      "inputs": [
        {
          "indexed": true,
          "internalType": "uint256",
          "name": "projectId",
          "type": "uint256"
        },
        {
          "indexed": false,
          "internalType": "uint256",
          "name": "timestamp",
          "type": "uint256"
        }
      ],
      "name": "FundingCompleted",
      "type": "event"
    },
    {
      "anonymous": false,
      "inputs": [
        {
          "indexed": true,
          "internalType": "uint256",
          "name": "projectId",
          "type": "uint256"
        },
        {
          "indexed": false,
          "internalType": "uint256",
          "name": "timestamp",
          "type": "uint256"
        },
        {
          "indexed": false,
          "internalType": "uint256",
          "name": "totalInvested",
          "type": "uint256"
        },
        {
          "indexed": false,
          "internalType": "uint256",
          "name": "targetAmount",
          "type": "uint256"
        }
      ],
      "name": "FundingFailed",
      "type": "event"
    },
    {
      "anonymous": false,
      "inputs": [
        {
          "indexed": true,
          "internalType": "uint256",
          "name": "projectId",
          "type": "uint256"
        },
        {
          "indexed": true,
          "internalType": "address",
          "name": "investor",
          "type": "address"
        },
        {
          "indexed": false,
          "internalType": "uint256",
          "name": "amount",
          "type": "uint256"
        }
      ],
      "name": "InterestClaimed",
      "type": "event"
    },
    {
      "anonymous": false,
      "inputs": [
        {
          "indexed": true,
          "internalType": "uint256",
          "name": "projectId",
          "type": "uint256"
        },
        {
          "indexed": true,
          "internalType": "address",
          "name": "investor",
          "type": "address"
        },
        {
          "indexed": false,
          "internalType": "uint256",
          "name": "amount",
          "type": "uint256"
        }
      ],
      "name": "InvestmentMade",
      "type": "event"
    },
    {
      "anonymous": false,
      "inputs": [
        {
          "indexed": true,
          "internalType": "address",
          "name": "previousOwner",
          "type": "address"
        },
        {
          "indexed": true,
          "internalType": "address",
          "name": "newOwner",
          "type": "address"
        }
      ],
      "name": "OwnershipTransferred",
      "type": "event"
    },
    {
      "anonymous": false,
      "inputs": [
        {
          "indexed": true,
          "internalType": "uint256",
          "name": "projectId",
          "type": "uint256"
        },
        {
          "indexed": true,
          "internalType": "address",
          "name": "investor",
          "type": "address"
        },
        {
          "indexed": false,
          "internalType": "uint256",
          "name": "amount",
          "type": "uint256"
        }
      ],
      "name": "PrincipalClaimed",
      "type": "event"
    },
    {
      "anonymous": false,
      "inputs": [
        {
          "indexed": true,
          "internalType": "uint256",
          "name": "projectId",
          "type": "uint256"
        },
        {
          "indexed": false,
          "internalType": "string",
          "name": "name",
          "type": "string"
        },
        {
          "indexed": true,
          "internalType": "address",
          "name": "owner",
          "type": "address"
        },
        {
          "indexed": false,
          "internalType": "uint256",
          "name": "targetAmount",
          "type": "uint256"
        }
      ],
      "name": "ProjectCreated",
      "type": "event"
    },
    {
      "anonymous": false,
      "inputs": [
        {
          "indexed": true,
          "internalType": "uint256",
          "name": "projectId",
          "type": "uint256"
        },
        {
          "indexed": true,
          "internalType": "address",
          "name": "investor",
          "type": "address"
        },
        {
          "indexed": false,
          "internalType": "uint256",
          "name": "amount",
          "type": "uint256"
        }
      ],
      "name": "RefundClaimed",
      "type": "event"
    },
    {
      "inputs": [],
      "name": "PRINCIPAL_PAYBACK_DELAY",
      "outputs": [
        {
          "internalType": "uint256",
          "name": "",
          "type": "uint256"
        }
      ],
      "stateMutability": "view",
      "type": "function"
    },
    {
      "inputs": [],
      "name": "PRINCIPAL_PAYBACK_RATE",
      "outputs": [
        {
          "internalType": "uint256",
          "name": "",
          "type": "uint256"
        }
      ],
      "stateMutability": "view",
      "type": "function"
    },
    {
      "inputs": [],
      "name": "TIER1_MAX",
      "outputs": [
        {
          "internalType": "uint256",
          "name": "",
          "type": "uint256"
        }
      ],
      "stateMutability": "view",
      "type": "function"
    },
    {
      "inputs": [],
      "name": "TIER1_RATE",
      "outputs": [
        {
          "internalType": "uint256",
          "name": "",
          "type": "uint256"
        }
      ],
      "stateMutability": "view",
      "type": "function"
    },
    {
      "inputs": [],
      "name": "TIER2_MAX",
      "outputs": [
        {
          "internalType": "uint256",
          "name": "",
          "type": "uint256"
        }
      ],
      "stateMutability": "view",
      "type": "function"
    },
    {
      "inputs": [],
      "name": "TIER2_RATE",
      "outputs": [
        {
          "internalType": "uint256",
          "name": "",
          "type": "uint256"
        }
      ],
      "stateMutability": "view",
      "type": "function"
    },
    {
      "inputs": [],
      "name": "TIER3_RATE",
      "outputs": [
        {
          "internalType": "uint256",
          "name": "",
          "type": "uint256"
        }
      ],
      "stateMutability": "view",
      "type": "function"
    },
    {
      "inputs": [],
      "name": "WEEK_IN_SECONDS",
      "outputs": [
        {
          "internalType": "uint256",
          "name": "",
          "type": "uint256"
        }
      ],
      "stateMutability": "view",
      "type": "function"
    },
    {
      "inputs": [],
      "name": "YEAR_IN_SECONDS",
      "outputs": [
        {
          "internalType": "uint256",
          "name": "",
          "type": "uint256"
        }
      ],
      "stateMutability": "view",
      "type": "function"
    },
    {
      "inputs": [
        {
          "internalType": "address",
          "name": "_admin",
          "type": "address"
        }
      ],
      "name": "addAdmin",
      "outputs": [],
      "stateMutability": "nonpayable",
      "type": "function"
    },
    {
      "inputs": [
        {
          "internalType": "address",
          "name": "",
          "type": "address"
        }
      ],
      "name": "admins",
      "outputs": [
        {
          "internalType": "bool",
          "name": "",
          "type": "bool"
        }
      ],
      "stateMutability": "view",
      "type": "function"
    },
    {
      "inputs": [
        {
          "internalType": "uint256",
          "name": "_projectId",
          "type": "uint256"
        },
        {
          "internalType": "address",
          "name": "_investor",
          "type": "address"
        }
      ],
      "name": "calculateAvailableInterest",
      "outputs": [
        {
          "internalType": "uint256",
          "name": "",
          "type": "uint256"
        }
      ],
      "stateMutability": "view",
      "type": "function"
    },
    {
      "inputs": [
        {
          "internalType": "uint256",
          "name": "_projectId",
          "type": "uint256"
        },
        {
          "internalType": "address",
          "name": "_investor",
          "type": "address"
        }
      ],
      "name": "calculateAvailablePrincipal",
      "outputs": [
        {
          "internalType": "uint256",
          "name": "",
          "type": "uint256"
        }
      ],
      "stateMutability": "view",
      "type": "function"
    },
    {
      "inputs": [
        {
          "internalType": "uint256",
          "name": "_projectId",
          "type": "uint256"
        }
      ],
      "name": "claimInterest",
      "outputs": [],
      "stateMutability": "nonpayable",
      "type": "function"
    },
    {
      "inputs": [
        {
          "internalType": "uint256",
          "name": "_projectId",
          "type": "uint256"
        }
      ],
      "name": "claimPrincipal",
      "outputs": [],
      "stateMutability": "nonpayable",
      "type": "function"
    },
    {
      "inputs": [
        {
          "internalType": "uint256",
          "name": "_projectId",
          "type": "uint256"
        }
      ],
      "name": "claimRefund",
      "outputs": [],
      "stateMutability": "nonpayable",
      "type": "function"
    },
    {
      "inputs": [
        {
          "internalType": "uint256",
          "name": "_projectId",
          "type": "uint256"
        }
      ],
      "name": "completeConstruction",
      "outputs": [],
      "stateMutability": "nonpayable",
      "type": "function"
    },
    {
      "inputs": [
        {
          "internalType": "string",
          "name": "_name",
          "type": "string"
        },
        {
          "internalType": "string",
          "name": "_description",
          "type": "string"
        },
        {
          "internalType": "string",
          "name": "_location",
          "type": "string"
        },
        {
          "internalType": "enum SandBlock.ProjectType",
          "name": "_projectType",
          "type": "uint8"
        },
        {
          "internalType": "uint256",
          "name": "_targetAmount",
          "type": "uint256"
        },
        {
          "internalType": "uint256",
          "name": "_fundingDurationDays",
          "type": "uint256"
        }
      ],
      "name": "createProject",
      "outputs": [
        {
          "internalType": "uint256",
          "name": "",
          "type": "uint256"
        }
      ],
      "stateMutability": "nonpayable",
      "type": "function"
    },
    {
      "inputs": [
        {
          "internalType": "uint256",
          "name": "_amount",
          "type": "uint256"
        }
      ],
      "name": "depositPayoutFunds",
      "outputs": [],
      "stateMutability": "nonpayable",
      "type": "function"
    },
    {
      "inputs": [
        {
          "internalType": "uint256",
          "name": "",
          "type": "uint256"
        },
        {
          "internalType": "uint256",
          "name": "",
          "type": "uint256"
        }
      ],
      "name": "energyRecords",
      "outputs": [
        {
          "internalType": "uint256",
          "name": "energyKWh",
          "type": "uint256"
        },
        {
          "internalType": "uint256",
          "name": "cost",
          "type": "uint256"
        },
        {
          "internalType": "uint256",
          "name": "timestamp",
          "type": "uint256"
        },
        {
          "internalType": "string",
          "name": "notes",
          "type": "string"
        }
      ],
      "stateMutability": "view",
      "type": "function"
    },
    {
      "inputs": [],
      "name": "getContractBalance",
      "outputs": [
        {
          "internalType": "uint256",
          "name": "",
          "type": "uint256"
        }
      ],
      "stateMutability": "view",
      "type": "function"
    },
    {
      "inputs": [
        {
          "internalType": "uint256",
          "name": "_projectId",
          "type": "uint256"
        }
      ],
      "name": "getEnergyRecords",
      "outputs": [
        {
          "components": [
            {
              "internalType": "uint256",
              "name": "energyKWh",
              "type": "uint256"
            },
            {
              "internalType": "uint256",
              "name": "cost",
              "type": "uint256"
            },
            {
              "internalType": "uint256",
              "name": "timestamp",
              "type": "uint256"
            },
            {
              "internalType": "string",
              "name": "notes",
              "type": "string"
            }
          ],
          "internalType": "struct SandBlock.EnergyRecord[]",
          "name": "",
          "type": "tuple[]"
        }
      ],
      "stateMutability": "view",
      "type": "function"
    },
    {
      "inputs": [
        {
          "internalType": "uint256",
          "name": "_amount",
          "type": "uint256"
        }
      ],
      "name": "getInterestRate",
      "outputs": [
        {
          "internalType": "uint256",
          "name": "",
          "type": "uint256"
        }
      ],
      "stateMutability": "pure",
      "type": "function"
    },
    {
      "inputs": [
        {
          "internalType": "uint256",
          "name": "_projectId",
          "type": "uint256"
        },
        {
          "internalType": "address",
          "name": "_investor",
          "type": "address"
        }
      ],
      "name": "getInvestment",
      "outputs": [
        {
          "internalType": "uint256",
          "name": "principalAmount",
          "type": "uint256"
        },
        {
          "internalType": "uint256",
          "name": "principalRemaining",
          "type": "uint256"
        },
        {
          "internalType": "uint256",
          "name": "interestRate",
          "type": "uint256"
        },
        {
          "internalType": "uint256",
          "name": "availableInterest",
          "type": "uint256"
        },
        {
          "internalType": "uint256",
          "name": "availablePrincipal",
          "type": "uint256"
        },
        {
          "internalType": "uint256",
          "name": "totalInterestClaimed",
          "type": "uint256"
        },
        {
          "internalType": "uint256",
          "name": "totalPrincipalClaimed",
          "type": "uint256"
        }
      ],
      "stateMutability": "view",
      "type": "function"
    },
    {
      "inputs": [
        {
          "internalType": "uint256",
          "name": "_projectId",
          "type": "uint256"
        }
      ],
      "name": "getProject",
      "outputs": [
        {
          "internalType": "string",
          "name": "name",
          "type": "string"
        },
        {
          "internalType": "string",
          "name": "description",
          "type": "string"
        },
        {
          "internalType": "string",
          "name": "location",
          "type": "string"
        },
        {
          "internalType": "enum SandBlock.ProjectType",
          "name": "projectType",
          "type": "uint8"
        },
        {
          "internalType": "uint256",
          "name": "targetAmount",
          "type": "uint256"
        },
        {
          "internalType": "uint256",
          "name": "totalInvested",
          "type": "uint256"
        },
        {
          "internalType": "uint256",
          "name": "energyProduced",
          "type": "uint256"
        },
        {
          "internalType": "uint256",
          "name": "totalEnergyCost",
          "type": "uint256"
        },
        {
          "internalType": "address",
          "name": "projectOwner",
          "type": "address"
        },
        {
          "internalType": "bool",
          "name": "isActive",
          "type": "bool"
        },
        {
          "internalType": "bool",
          "name": "isCompleted",
          "type": "bool"
        },
        {
          "internalType": "bool",
          "name": "isFailed",
          "type": "bool"
        }
      ],
      "stateMutability": "view",
      "type": "function"
    },
    {
      "inputs": [
        {
          "internalType": "uint256",
          "name": "_projectId",
          "type": "uint256"
        }
      ],
      "name": "getProjectInvestors",
      "outputs": [
        {
          "internalType": "address[]",
          "name": "",
          "type": "address[]"
        }
      ],
      "stateMutability": "view",
      "type": "function"
    },
    {
      "inputs": [
        {
          "internalType": "uint256",
          "name": "_projectId",
          "type": "uint256"
        }
      ],
      "name": "getProjectTimeline",
      "outputs": [
        {
          "internalType": "uint256",
          "name": "createdAt",
          "type": "uint256"
        },
        {
          "internalType": "uint256",
          "name": "fundingDeadline",
          "type": "uint256"
        },
        {
          "internalType": "uint256",
          "name": "fundingCompletedAt",
          "type": "uint256"
        },
        {
          "internalType": "uint256",
          "name": "constructionCompletedAt",
          "type": "uint256"
        }
      ],
      "stateMutability": "view",
      "type": "function"
    },
    {
      "inputs": [
        {
          "internalType": "uint256",
          "name": "_projectId",
          "type": "uint256"
        },
        {
          "internalType": "uint256",
          "name": "_amount",
          "type": "uint256"
        }
      ],
      "name": "investInProject",
      "outputs": [],
      "stateMutability": "nonpayable",
      "type": "function"
    },
    {
      "inputs": [
        {
          "internalType": "uint256",
          "name": "",
          "type": "uint256"
        },
        {
          "internalType": "address",
          "name": "",
          "type": "address"
        }
      ],
      "name": "investments",
      "outputs": [
        {
          "internalType": "uint256",
          "name": "principalAmount",
          "type": "uint256"
        },
        {
          "internalType": "uint256",
          "name": "principalRemaining",
          "type": "uint256"
        },
        {
          "internalType": "uint256",
          "name": "lastInterestClaim",
          "type": "uint256"
        },
        {
          "internalType": "uint256",
          "name": "lastPrincipalClaim",
          "type": "uint256"
        },
        {
          "internalType": "uint256",
          "name": "totalInterestClaimed",
          "type": "uint256"
        },
        {
          "internalType": "uint256",
          "name": "totalPrincipalClaimed",
          "type": "uint256"
        }
      ],
      "stateMutability": "view",
      "type": "function"
    },
    {
      "inputs": [
        {
          "internalType": "address",
          "name": "_address",
          "type": "address"
        }
      ],
      "name": "isAdmin",
      "outputs": [
        {
          "internalType": "bool",
          "name": "",
          "type": "bool"
        }
      ],
      "stateMutability": "view",
      "type": "function"
    },
    {
      "inputs": [
        {
          "internalType": "uint256",
          "name": "_projectId",
          "type": "uint256"
        }
      ],
      "name": "isProjectFundingFailed",
      "outputs": [
        {
          "internalType": "bool",
          "name": "",
          "type": "bool"
        }
      ],
      "stateMutability": "view",
      "type": "function"
    },
    {
      "inputs": [
        {
          "internalType": "uint256",
          "name": "_projectId",
          "type": "uint256"
        }
      ],
      "name": "markFundingFailed",
      "outputs": [],
      "stateMutability": "nonpayable",
      "type": "function"
    },
    {
      "inputs": [],
      "name": "owner",
      "outputs": [
        {
          "internalType": "address",
          "name": "",
          "type": "address"
        }
      ],
      "stateMutability": "view",
      "type": "function"
    },
    {
      "inputs": [],
      "name": "projectCount",
      "outputs": [
        {
          "internalType": "uint256",
          "name": "",
          "type": "uint256"
        }
      ],
      "stateMutability": "view",
      "type": "function"
    },
    {
      "inputs": [
        {
          "internalType": "uint256",
          "name": "",
          "type": "uint256"
        },
        {
          "internalType": "uint256",
          "name": "",
          "type": "uint256"
        }
      ],
      "name": "projectInvestors",
      "outputs": [
        {
          "internalType": "address",
          "name": "",
          "type": "address"
        }
      ],
      "stateMutability": "view",
      "type": "function"
    },
    {
      "inputs": [
        {
          "internalType": "uint256",
          "name": "",
          "type": "uint256"
        }
      ],
      "name": "projects",
      "outputs": [
        {
          "internalType": "uint256",
          "name": "id",
          "type": "uint256"
        },
        {
          "internalType": "string",
          "name": "name",
          "type": "string"
        },
        {
          "internalType": "string",
          "name": "description",
          "type": "string"
        },
        {
          "internalType": "string",
          "name": "location",
          "type": "string"
        },
        {
          "internalType": "enum SandBlock.ProjectType",
          "name": "projectType",
          "type": "uint8"
        },
        {
          "internalType": "uint256",
          "name": "targetAmount",
          "type": "uint256"
        },
        {
          "internalType": "uint256",
          "name": "totalInvested",
          "type": "uint256"
        },
        {
          "internalType": "uint256",
          "name": "energyProduced",
          "type": "uint256"
        },
        {
          "internalType": "uint256",
          "name": "totalEnergyCost",
          "type": "uint256"
        },
        {
          "internalType": "address",
          "name": "projectOwner",
          "type": "address"
        },
        {
          "internalType": "bool",
          "name": "isActive",
          "type": "bool"
        },
        {
          "internalType": "bool",
          "name": "isCompleted",
          "type": "bool"
        },
        {
          "internalType": "bool",
          "name": "isFailed",
          "type": "bool"
        },
        {
          "internalType": "uint256",
          "name": "createdAt",
          "type": "uint256"
        },
        {
          "internalType": "uint256",
          "name": "fundingDeadline",
          "type": "uint256"
        },
        {
          "internalType": "uint256",
          "name": "fundingCompletedAt",
          "type": "uint256"
        },
        {
          "internalType": "uint256",
          "name": "constructionCompletedAt",
          "type": "uint256"
        }
      ],
      "stateMutability": "view",
      "type": "function"
    },
    {
      "inputs": [
        {
          "internalType": "uint256",
          "name": "_projectId",
          "type": "uint256"
        },
        {
          "internalType": "uint256",
          "name": "_energyKWh",
          "type": "uint256"
        },
        {
          "internalType": "uint256",
          "name": "_cost",
          "type": "uint256"
        },
        {
          "internalType": "string",
          "name": "_notes",
          "type": "string"
        }
      ],
      "name": "recordEnergyProduction",
      "outputs": [],
      "stateMutability": "nonpayable",
      "type": "function"
    },
    {
      "inputs": [
        {
          "internalType": "address",
          "name": "_admin",
          "type": "address"
        }
      ],
      "name": "removeAdmin",
      "outputs": [],
      "stateMutability": "nonpayable",
      "type": "function"
    },
    {
      "inputs": [],
      "name": "renounceOwnership",
      "outputs": [],
      "stateMutability": "nonpayable",
      "type": "function"
    },
    {
      "inputs": [
        {
          "internalType": "uint256",
          "name": "_projectId",
          "type": "uint256"
        }
      ],
      "name": "toggleProjectStatus",
      "outputs": [],
      "stateMutability": "nonpayable",
      "type": "function"
    },
    {
      "inputs": [
        {
          "internalType": "address",
          "name": "newOwner",
          "type": "address"
        }
      ],
      "name": "transferOwnership",
      "outputs": [],
      "stateMutability": "nonpayable",
      "type": "function"
    },
    {
      "inputs": [],
      "name": "usdtToken",
      "outputs": [
        {
          "internalType": "contract IERC20",
          "name": "",
          "type": "address"
        }
      ],
      "stateMutability": "view",
      "type": "function"
    }
  ],
  "transactionHash": "0x92029adc8a8b9761bb0ba621eef6028c475b3589f5366ed737e76d2b7f73c3c0",
  "args": [
    "0xb84e64903D3C0fcFbf4154f5f279a8DBcaBF9718"
  ],
  "numDeployments": 1,
  "solcInputHash": "ff471a38c0691480d4daad1b7f041169",
  "bytecode": "0x6080346100ad57601f62002df138819003918201601f19168301916001600160401b038311848410176100b2578084926020946040528339810103126100ad57516001600160a01b0390818116908190036100ad5760005460018060a01b0319903382821617600055604051933391167f8be0079c531659141344cd1fd0a4f28419497f9722a3daafe3b4186f6b6457e0600080a3600180556002541617600255612d289081620000c98239f35b600080fd5b634e487b7160e01b600052604160045260246000fdfe608080604052600436101561001357600080fd5b60003560e01c9081630c196a741461269e57508063107046bd1461255e5780631785f53c146124ac57806319ac27561461248f5780631e9dbd721461243e578063218aa77314611cd557806324d7806c1461130157806324ebae6914611cb65780632cb3ce8c14611c995780632eb375ea14611b5a578063336f56dc1461177a57806336fbad261461175c5780633842ced3146116a45780633b6418de14611340578063429b62e5146113015780634c366a53146111b657806358a75b0d146111985780635b7baf64146110015780635ecd37e214610fe157806365897dff14610f035780636ce12c3514610e6a5780636f9fb98a14610de25780637048027514610ce7578063715018a614610c8e57806373d9d54c14610c6f5780637847ea5314610c505780638b44da9514610c065780638b8a417e14610b235780638c727e7114610afd5780638da5cb5b14610ad4578063a1b236ec14610ab8578063a98ad46c14610a8f578063b11b32d214610a10578063c26b6beb146109e8578063c923e8d31461084e578063f0a15f1014610831578063f0f3f2c81461072e578063f1a0600f14610526578063f2fde38b1461045d578063f32dbe801461042f578063f9af05791461024f5763fbe5e549146101ed57600080fd5b3461024a576101fb366128af565b906000526007602052604060002090815481101561024a5761021c91612906565b508054610246600183015492610239600360028301549201612739565b9060405194859485612922565b0390f35b600080fd5b3461024a5760208060031936011261024a5760043561026c612aae565b80600052600482526040600020916102843383612c15565b9283156103ea57826000526005825260406000203360005282526102b0600c6040600020920154612a35565b600382018054909291808211156103e25750915b6301e1338092836102d58242612b73565b048481029481860414901517156103cc576005936102f291612a46565b905560018101610303868254612b73565b905501610311848254612a46565b905560025460405163a9059cbb60e01b81523360048201526024810185905291908190839060449082906000906001600160a01b03165af19182156103c0577f0fe3f8c8efb598229bc8d84aded15e848dcaf790443655f8088b0e8e57a9d40b9261038491600091610393575b50612a6b565b6040519384523393a360018055005b6103b39150833d85116103b9575b6103ab8183612717565b810190612a53565b8661037e565b503d6103a1565b6040513d6000823e3d90fd5b634e487b7160e01b600052601160045260246000fd5b9050916102c4565b60405162461bcd60e51b815260048101839052601f60248201527f4e6f207072696e636970616c20617661696c61626c6520746f20636c61696d006044820152606490fd5b3461024a57604036600319011261024a57602061045561044d612842565b600435612c15565b604051908152f35b3461024a57602036600319011261024a5761047661282c565b61047e612948565b6001600160a01b039081169081156104d257600054826bffffffffffffffffffffffff60a01b821617600055167f8be0079c531659141344cd1fd0a4f28419497f9722a3daafe3b4186f6b6457e0600080a3005b60405162461bcd60e51b815260206004820152602660248201527f4f776e61626c653a206e6577206f776e657220697320746865207a65726f206160448201526564647265737360d01b6064820152608490fd5b3461024a5760208060031936011261024a576004359081600052600481526040600020600981019081549160ff8360b01c166106eb5760ff8360a81c166106a657600c82015461066157600b82015442111561061e576005600683015492015492838310156105d95762ff00ff60a01b1916600160b01b17905560408051428152938401919091528201527feb9cd70f55b7cb93db8903f4881b451ac1def7aed2a6c850e1db2b2e47598e1390606090a2005b60405162461bcd60e51b815260048101869052601960248201527f54617267657420616d6f756e74207761732072656163686564000000000000006044820152606490fd5b6064846040519062461bcd60e51b825280600483015260248201527f46756e64696e6720646561646c696e65206e6f742072656163686564207965746044820152fd5b60405162461bcd60e51b815260048101859052601e60248201527f50726f6a6563742066756e64696e6720776173207375636365737366756c00006044820152606490fd5b60405162461bcd60e51b815260048101859052601c60248201527f50726f6a65637420697320616c726561647920636f6d706c65746564000000006044820152606490fd5b6064846040519062461bcd60e51b825280600483015260248201527f50726f6a65637420616c7265616479206d61726b6564206173206661696c65646044820152fd5b3461024a57602036600319011261024a5760043560005260046020526107bb604060002060ff60048201541660ff6005830154600684015460078501546008860154916009870154936107e26107d761078960018b01612739565b996107c96107a5600361079e60028501612739565b9301612739565b916040519d8e9d8e6101809081815201906127df565b8d810360208f0152906127df565b908b820360408d01526127df565b9760608a019061281f565b608088015260a087015260c086015260e085015260018060a01b038116610100850152818160a01c161515610120850152818160a81c16151561014085015260b01c1615156101608301520390f35b3461024a57600036600319011261024a5760206040516102bc8152f35b3461024a5760208060031936011261024a57600054600435916001600160a01b03918216331480156109d0575b610884906129cb565b8260005260048152604060002060098101805460ff8160a81c1661098b57600c830154156109465761ffff60a01b1916600160a81b17905542600d91909101556000838152600682526040812091905b825481101561091a576109159085600052600583526040600020856108f983876128d8565b90549060031b1c16600052835242600260406000200155612a26565b6108d4565b847fdb8b43cf4104775d6bc9772d3965dad38620ee2d87071ebfe54c521f7b208d6683604051428152a2005b60405162461bcd60e51b815260048101859052601960248201527f46756e64696e67206e6f7420636f6d706c6574656420796574000000000000006044820152606490fd5b60405162461bcd60e51b815260048101859052601960248201527f50726f6a65637420616c726561647920636f6d706c65746564000000000000006044820152606490fd5b5033600090815260038252604090205460ff1661087b565b3461024a57602036600319011261024a576020610a06600435612b04565b6040519015158152f35b3461024a57604036600319011261024a57610a29612842565b600435600052600560205260406000209060018060a01b031660005260205260c0604060002080549060018101549060028101546003820154906005600484015493015493604051958652602086015260408501526060840152608083015260a0820152f35b3461024a57600036600319011261024a576002546040516001600160a01b039091168152602090f35b3461024a57600036600319011261024a57602060405160148152f35b3461024a57600036600319011261024a576000546040516001600160a01b039091168152602090f35b3461024a57604036600319011261024a576020610455610b1b612842565b600435612b80565b3461024a57602036600319011261024a576004356000526004602052600960406000200180549060018060a01b0382163303610bcc5760ff8260a81c16610b8757805460ff60a01b191660a092831c60ff161590921b60ff60a01b16919091179055005b60405162461bcd60e51b815260206004820152601f60248201527f43616e6e6f7420746f67676c6520636f6d706c657465642070726f6a656374006044820152606490fd5b60405162461bcd60e51b815260206004820152601260248201527127b7363c90383937b532b1ba1037bbb732b960711b6044820152606490fd5b3461024a57610c14366128af565b9060005260066020526040600020805482101561024a57602091610c37916128d8565b905460405160039290921b1c6001600160a01b03168152f35b3461024a57600036600319011261024a5760206040516301e133808152f35b3461024a57600036600319011261024a5760206040516303c267008152f35b3461024a57600036600319011261024a57610ca7612948565b600080546001600160a01b0319811682556001600160a01b03167f8be0079c531659141344cd1fd0a4f28419497f9722a3daafe3b4186f6b6457e08280a3005b3461024a57602036600319011261024a57610d0061282c565b610d08612948565b6001600160a01b03168015610da55780600052600360205260ff60406000205416610d6d578060005260036020526040600020600160ff198254161790557f44d6d25963f097ad14f29f06854a01f575648a1ef82f30e562ccd3889717e339600080a2005b60405162461bcd60e51b815260206004820152601060248201526f20b63932b0b23c9030b71030b236b4b760811b6044820152606490fd5b60405162461bcd60e51b8152602060048201526015602482015274496e76616c69642061646d696e206164647265737360581b6044820152606490fd5b3461024a57600036600319011261024a576002546040516370a0823160e01b815230600482015290602090829060249082906001600160a01b03165afa80156103c057600090610e38575b602090604051908152f35b506020813d8211610e62575b81610e5160209383612717565b8101031261024a5760209051610e2d565b3d9150610e44565b3461024a57604036600319011261024a5760e0600435610e88612842565b90806000526005602052604060002060018060a01b0383166000526020526040600020805492600182015492610ed1610ec0866129a0565b92610ecb8184612b80565b92612c15565b916005600485015494015494604051968752602087015260408601526060850152608084015260a083015260c0820152f35b3461024a57602036600319011261024a57600435610f1f612aae565b8015610f9c576002546040516323b872dd60e01b81523360048201523060248201526044810192909252602090829060649082906000906001600160a01b03165af180156103c057610f7891600091610f7e5750612a6b565b60018055005b610f96915060203d81116103b9576103ab8183612717565b8261037e565b60405162461bcd60e51b815260206004820152601d60248201527f416d6f756e74206d7573742062652067726561746572207468616e20300000006044820152606490fd5b3461024a57600036600319011261024a5760206040516404a817c8008152f35b3461024a5760208060031936011261024a5760043561101e612aae565b8060005260048252604060002060058352604060002033600052835260ff6009604060002092015460b01c161561115a57805415611115576001019182549283156110d75760009081905560025460405163a9059cbb60e01b8152336004820152602481018690529291829184916044918391906001600160a01b03165af19182156103c0577ff3f402280ef0a7905e124aa621b65eaeb2725c343e8b36d398ed78c29daf285c92610384916000916103935750612a6b565b60405162461bcd60e51b81526004810183905260166024820152751499599d5b9908185b1c9958591e4818db185a5b595960521b6044820152606490fd5b60405162461bcd60e51b815260048101849052601760248201527f4e6f20696e766573746d656e7420746f20726566756e640000000000000000006044820152606490fd5b60405162461bcd60e51b8152600481018490526016602482015275141c9bda9958dd081a185cc81b9bdd0819985a5b195960521b6044820152606490fd5b3461024a57600036600319011261024a57602060405162093a808152f35b3461024a5760208060031936011261024a5760043560005260078152604060002080549067ffffffffffffffff82116112eb578290604051926111fe838260051b0185612717565b8084528284018092600052836000206000915b83831061129e5750505050604051918083019381845251809452604083019360408160051b85010192916000955b82871061124c5785850386f35b90919293828061128e600193603f198a8203018652885180518252838101518483015260408101516040830152606080910151916080809282015201906127df565b960192019601959291909261123f565b6004866001926040999899516112b3816126fb565b855481528486015483820152600286015460408201526112d560038701612739565b6060820152815201920192019190959495611211565b634e487b7160e01b600052604160045260246000fd5b3461024a57602036600319011261024a576001600160a01b0361132261282c565b166000526003602052602060ff604060002054166040519015158152f35b3461024a57608036600319011261024a576024600435813560443567ffffffffffffffff60643581811161024a5761137c903690600401612858565b9060018060a01b03600054163314801561168b575b61139a906129cb565b8460005260209060048252604060002060ff600982015460a81c16156116475785156115f857806007600892016113d2888254612a46565b9055016113e0858254612a46565b905585600052600782526040600020604051926113fc846126fb565b86845280840193868552604081019442865260608201958787528454600160401b8110156115e357611435906001968782018155612906565b9290926115ce5760039351835551858301555160028201550193519889519384116115ba575061146584546126c1565b601f8111611571575b5080601f84116001146114e15750918080926114d19695947f514c998a16580e1ba03e1179e301e9db683d0a0d7437634b24e9637d60b84ea39a9b6000946114d6575b50501b916000199060031b1c19161790555b604051938493429185612922565b0390a2005b015192508b806114b1565b91939498601f1984168660005283600020936000905b82821061155a575050917f514c998a16580e1ba03e1179e301e9db683d0a0d7437634b24e9637d60b84ea3999a959391856114d198969410611541575b505050811b0190556114c3565b015160001960f88460031b161c19169055898080611534565b8088869782949787015181550196019401906114f7565b8460005281600020601f850160051c8101918386106115b0575b601f0160051c019083905b8281106115a457505061146e565b60008155018390611596565b909150819061158b565b634e487b7160e01b60009081526041600452fd5b8c634e487b7160e01b60005260006004526000fd5b8c634e487b7160e01b60005260416004526000fd5b608483896040519162461bcd60e51b83526004830152808201527f456e6572677920616d6f756e74206d75737420626520677265617465722074686044820152630616e20360e41b6064820152fd5b60405162461bcd60e51b815260048101849052601f818a01527f50726f6a656374206d75737420626520636f6d706c65746564206669727374006044820152606490fd5b503360009081526003602052604090205460ff16611391565b3461024a5760208060031936011261024a5760043560005260068152604060002060405190818382549182815201908192600052846000209060005b8682821061173f5786866116f682880383612717565b604051928392818401908285525180915260408401929160005b82811061171f57505050500390f35b83516001600160a01b031685528695509381019392810192600101611710565b83546001600160a01b0316855290930192600192830192016116e0565b3461024a57600036600319011261024a576020600854604051908152f35b3461024a57611788366128af565b90611791612aae565b80600052602060048152604060002090600982015460ff8160a01c1615611b1d5760ff8160a81c16611ace5760b01c60ff16611a8a57600b8201544211611a465783156119f15760068201916117e8858454612a46565b9260058201938454106119ae576002546040516323b872dd60e01b8152336004820152306024820152604481018890526001600160a01b0395918590829060649082906000908b165af180156103c057611849916000916119915750612a6b565b85600052600584526040600020336000528452604060002094855415611918575b5060018561189a897f89728d542d77fad9fe42c7d1f032c2b85f64cf938d754183b0e95359fbfac8a19854612a46565b8155016118a8888254612a46565b90556118b5878354612a46565b8092555411158061190c575b6118d6575b506040519384523393a360018055005b600c42910155827facef193e0e86e1befd5fb43ab2e5687427446a96568ffb8cb4f7d588c79f6c9582604051428152a2846118c6565b50600c810154156118c1565b8660005260068552604060002095865491600160401b8310156112eb57611967837f89728d542d77fad9fe42c7d1f032c2b85f64cf938d754183b0e95359fbfac8a199600180960181556128d8565b819291549060031b91821b809233901b16911916179055426002820155426003820155955061186a565b6119a89150863d88116103b9576103ab8183612717565b8961037e565b6064836040519062461bcd60e51b825280600483015260248201527f496e766573746d656e7420657863656564732074617267657420616d6f756e746044820152fd5b6084906040519062461bcd60e51b82526004820152602860248201527f496e766573746d656e7420616d6f756e74206d75737420626520677265617465604482015267072207468616e20360c41b6064820152fd5b6064906040519062461bcd60e51b82526004820152601b60248201527f46756e64696e6720646561646c696e65206861732070617373656400000000006044820152fd5b6064906040519062461bcd60e51b82526004820152601a60248201527f50726f6a6563742066756e64696e6720686173206661696c65640000000000006044820152fd5b60405162461bcd60e51b815260048101839052602160248201527f50726f6a65637420636f6e737472756374696f6e20697320636f6d706c6574656044820152601960fa1b6064820152608490fd5b60405162461bcd60e51b815260048101839052601560248201527450726f6a656374206973206e6f742061637469766560581b6044820152606490fd5b3461024a5760208060031936011261024a57600435611b77612aae565b611b813382612b80565b918215611c5557816000526005815260406000203360005281526040600020600281019081549162093a809283611bb88242612b73565b048481029481860414901517156103cc57600493611bd591612a46565b905501611be3848254612a46565b905560025460405163a9059cbb60e01b81523360048201526024810185905291908190839060449082906000906001600160a01b03165af19182156103c0577f5bd56c18bcf5c328fa6875f4ee4b28fe6f3188c3805a320276bc47aa87b4de0d92610384916000916103935750612a6b565b6064906040519062461bcd60e51b82526004820152601e60248201527f4e6f20696e74657265737420617661696c61626c6520746f20636c61696d00006044820152fd5b3461024a57600036600319011261024a5760206040516103848152f35b3461024a57600036600319011261024a57602060405163773594008152f35b3461024a5760c036600319011261024a5760043567ffffffffffffffff811161024a57611d06903690600401612858565b60243567ffffffffffffffff811161024a57611d26903690600401612858565b9060443567ffffffffffffffff811161024a57611d47903690600401612858565b906007606435101561024a5760a4359160018060a01b036000541633148015612425575b611d74906129cb565b608435156123d457821561237f5761016d831161232c5760085492611d9884612a26565b60085562015180808202918204036103cc57611db49042612a46565b9060405194610220860186811067ffffffffffffffff8211176112eb5760405284865283602087015260408601526060850152606435608085015260843560a0850152600060c0850152600060e0850152600061010085015233610120850152600161014085015260006101608501526000610180850152426101a08501526101c084015260006101e08401526000610200840152816000526004602052604060002083518155602084015180519067ffffffffffffffff82116112eb578190611e8160018501546126c1565b601f81116122d9575b50602090601f831160011461226c57600092612261575b50508160011b916000199060031b1c19161760018201555b604084015180519067ffffffffffffffff82116112eb578190611edf60028501546126c1565b601f811161220e575b50602090601f83116001146121a157600092612196575b50508160011b916000199060031b1c19161760028201555b606084015180519067ffffffffffffffff82116112eb578190611f3d60038501546126c1565b601f8111612143575b50602090601f83116001146120d6576000926120cb575b50508160011b916000199060031b1c19161760038201555b60808401519360078510156120b55760048201805460ff90961660ff19969096169590951790945560a080850151600583015560c0850151600683015560e0850151600783015561010085015160088301556101208501516009830180546101408801516001600160a81b03199091166001600160a01b03939093169290921791151590921b60ff60a01b16178155602094600d9161020091906101608201511515815460ff60b01b610180850151151560b01b169160ff60a81b9060a81b169061ffff60a81b1916171790556101a0810151600a8501556101c0810151600b8501556101e0810151600c8501550151910155817fa026ee65bff24e0219543a4cec2746ef952b145e2658ac5db36953d7044712a961209f604051936040855260408501906127df565b92608435868201528033940390a3604051908152f35b634e487b7160e01b600052602160045260246000fd5b015190508680611f5d565b600385016000908152602081209350601f198516905b81811061212b5750908460019594939210612112575b505050811b016003820155611f75565b015160001960f88460031b161c19169055868080612102565b929360206001819287860151815501950193016120ec565b909150600384016000526020600020601f840160051c81016020851061218f575b90849392915b601f830160051c82018110612180575050611f46565b6000815585945060010161216a565b5080612164565b015190508680611eff565b600285016000908152602081209350601f198516905b8181106121f657509084600195949392106121dd575b505050811b016002820155611f17565b015160001960f88460031b161c191690558680806121cd565b929360206001819287860151815501950193016121b7565b909150600284016000526020600020601f840160051c81016020851061225a575b90849392915b601f830160051c8201811061224b575050611ee8565b60008155859450600101612235565b508061222f565b015190508680611ea1565b600185016000908152602081209350601f198516905b8181106122c157509084600195949392106122a8575b505050811b016001820155611eb9565b015160001960f88460031b161c19169055868080612298565b92936020600181928786015181550195019301612282565b909150600184016000526020600020601f840160051c810160208510612325575b90849392915b601f830160051c82018110612316575050611e8a565b60008155859450600101612300565b50806122fa565b60405162461bcd60e51b815260206004820152602560248201527f46756e64696e67206475726174696f6e2063616e6e6f74206578636565642031604482015264103cb2b0b960d91b6064820152608490fd5b60405162461bcd60e51b815260206004820152602760248201527f46756e64696e67206475726174696f6e206d75737420626520677265617465726044820152660207468616e20360cc1b6064820152608490fd5b60405162461bcd60e51b8152602060048201526024808201527f54617267657420616d6f756e74206d75737420626520677265617465722074686044820152630616e20360e41b6064820152608490fd5b503360009081526003602052604090205460ff16611d6b565b3461024a57602036600319011261024a57600435600052600460205260806040600020600a81015490600b81015490600d600c82015491015491604051938452602084015260408301526060820152f35b3461024a57600036600319011261024a5760206040516101f48152f35b3461024a57602036600319011261024a576124c561282c565b6124cd612948565b6001600160a01b031660008181526003602052604090205460ff161561252a57806000526003602052604060002060ff1981541690557fa3b62bc36326052d97ea62d63c3d60308ed4c3ea8ac079dd8499f1e9c4f80c0f600080a2005b60405162461bcd60e51b815260206004820152600c60248201526b2737ba1030b71030b236b4b760a11b6044820152606490fd5b3461024a57602036600319011261024a576004356000526004602052604060002080546001820161258e90612739565b9161259b60028201612739565b6125a760038301612739565b91600481015460ff1692600582015460068301546007840154600885015490600986015492600a87015494600b88015496600c89015498600d0154996040519d8e9d8e528d6102209081602082015201612600916127df565b8d810360408f0152612611916127df565b8c810360608e0152612622916127df565b9960808c016126309161281f565b60a08b015260c08a015260e0890152610100880152600160a01b6001900381166101208801528060a01c60ff1615156101408801528060a81c60ff16151561016088015260b01c60ff1615156101808701526101a08601526101c08501526101e08401526102008301520390f35b3461024a57602036600319011261024a576020906126bd6004356129a0565b8152f35b90600182811c921680156126f1575b60208310146126db57565b634e487b7160e01b600052602260045260246000fd5b91607f16916126d0565b6080810190811067ffffffffffffffff8211176112eb57604052565b90601f8019910116810190811067ffffffffffffffff8211176112eb57604052565b906040519182600082549261274d846126c1565b9081845260019485811690816000146127bc5750600114612779575b505061277792500383612717565b565b9093915060005260209081600020936000915b8183106127a457505061277793508201013880612769565b8554888401850152948501948794509183019161278c565b91505061277794506020925060ff191682840152151560051b8201013880612769565b919082519283825260005b84811061280b575050826000602080949584010152601f8019910116010190565b6020818301810151848301820152016127ea565b9060078210156120b55752565b600435906001600160a01b038216820361024a57565b602435906001600160a01b038216820361024a57565b81601f8201121561024a5780359067ffffffffffffffff82116112eb576040519261288d601f8401601f191660200185612717565b8284526020838301011161024a57816000926020809301838601378301015290565b604090600319011261024a576004359060243590565b818102929181159184041417156103cc57565b80548210156128f05760005260206000200190600090565b634e487b7160e01b600052603260045260246000fd5b80548210156128f05760005260206000209060021b0190600090565b9092608092612945959483526020830152604082015281606082015201906127df565b90565b6000546001600160a01b0316330361295c57565b606460405162461bcd60e51b815260206004820152602060248201527f4f776e61626c653a2063616c6c6572206973206e6f7420746865206f776e65726044820152fd5b63773594008110156129b357506101f490565b6404a817c80011156129c5576102bc90565b61038490565b156129d257565b60405162461bcd60e51b815260206004820152602660248201527f4e6f7420617574686f72697a65643a206d757374206265206f776e6572206f726044820152651030b236b4b760d11b6064820152608490fd5b60001981146103cc5760010190565b906303c2670082018092116103cc57565b919082018092116103cc57565b9081602091031261024a5751801515810361024a5790565b15612a7257565b60405162461bcd60e51b81526020600482015260146024820152731554d115081d1c985b9cd9995c8819985a5b195960621b6044820152606490fd5b600260015414612abf576002600155565b60405162461bcd60e51b815260206004820152601f60248201527f5265656e7472616e637947756172643a207265656e7472616e742063616c6c006044820152606490fd5b60005260046020526040600020600981015460ff8160b01c16612b6c57600b82015442119182612b5f575b82612b4b575b5081612b3f575090565b60ff915060a81c161590565b600681015460059091015411915038612b35565b600c810154159250612b2f565b5050600190565b919082039182116103cc57565b6000908152600460205260408120916005602052604082209060018060a01b0316825260205260ff60096040832093015460a81c16158015612c0c575b612c075762093a80612bd3600284015442612b73565b04908115612c0157506207ef40612bfb836001612bf361294596546129a0565b9101546128c5565b046128c5565b91505090565b905090565b50815415612bbd565b6000908152600460205260408120916005602052604082209060018060a01b03168252602052600c6040822092015480158015612ce9575b612ce3576303c26700612c608242612b73565b10612ce357612c8c612c766301e1338092612a35565b60038501549080821115612cdc57505b42612b73565b04908115612c0157825490601482029180830460141490151715612cc857506001916064612cba92046128c5565b910154808211612c07575090565b634e487b7160e01b81526011600452602490fd5b9050612c86565b50905090565b50825415612c4d56fea26469706673582212209d96408b505c83b670b6d125ead1a1311479b197c602255d76a142cd5deac42c64736f6c63430008110033",
  "devdoc": {
    "details": "Manages tokenized energy projects with tiered interest rates and scheduled paybacks Interest Rates (APY): - < 2000 USDT: 5% per year - 2000 - 20000 USDT: 7% per year - > 20000 USDT: 9% per year Payback Schedule: - Weekly interest payments after project completion - Principal payback: 20% per year starting 2 years after target reached",
    "kind": "dev",
    "methods": {
      "addAdmin(address)": {
        "details": "Add an admin who can create and edit projects",
        "params": {
          "_admin": "Address to add as admin"
        }
      },
      "calculateAvailableInterest(uint256,address)": {
        "details": "Calculate available weekly interest for an investor"
      },
      "calculateAvailablePrincipal(uint256,address)": {
        "details": "Calculate available principal payback for an investor"
      },
      "claimInterest(uint256)": {
        "details": "Claim weekly interest payments"
      },
      "claimPrincipal(uint256)": {
        "details": "Claim principal payback (20% per year starting 2 years after funding)"
      },
      "claimRefund(uint256)": {
        "details": "Claim refund for failed project"
      },
      "completeConstruction(uint256)": {
        "details": "Mark project construction as completed (only project owner)"
      },
      "createProject(string,string,string,uint8,uint256,uint256)": {
        "details": "Create a new energy project"
      },
      "depositPayoutFunds(uint256)": {
        "details": "Deposit funds to contract for payouts (project owner)"
      },
      "getContractBalance()": {
        "details": "Get contract USDT balance"
      },
      "getEnergyRecords(uint256)": {
        "details": "Get energy records for a project"
      },
      "getInterestRate(uint256)": {
        "details": "Calculate interest rate based on investment amount (in basis points)"
      },
      "getInvestment(uint256,address)": {
        "details": "Get investment details for an investor"
      },
      "getProject(uint256)": {
        "details": "Get project basic info"
      },
      "getProjectInvestors(uint256)": {
        "details": "Get all investors for a project"
      },
      "getProjectTimeline(uint256)": {
        "details": "Get project timeline info"
      },
      "investInProject(uint256,uint256)": {
        "details": "Invest in a project with USDT"
      },
      "isAdmin(address)": {
        "details": "Check if an address is an admin",
        "params": {
          "_address": "Address to check"
        }
      },
      "isProjectFundingFailed(uint256)": {
        "details": "Check if project funding has failed (deadline passed without reaching target)"
      },
      "markFundingFailed(uint256)": {
        "details": "Mark project funding as failed if deadline passed without reaching target Can be called by anyone after deadline"
      },
      "owner()": {
        "details": "Returns the address of the current owner."
      },
      "recordEnergyProduction(uint256,uint256,uint256,string)": {
        "details": "Record energy produced with cost (only project owner can call)"
      },
      "removeAdmin(address)": {
        "details": "Remove an admin",
        "params": {
          "_admin": "Address to remove from admins"
        }
      },
      "renounceOwnership()": {
        "details": "Leaves the contract without owner. It will not be possible to call `onlyOwner` functions. Can only be called by the current owner. NOTE: Renouncing ownership will leave the contract without an owner, thereby disabling any functionality that is only available to the owner."
      },
      "toggleProjectStatus(uint256)": {
        "details": "Toggle project active status (only project owner)"
      },
      "transferOwnership(address)": {
        "details": "Transfers ownership of the contract to a new account (`newOwner`). Can only be called by the current owner."
      }
    },
    "title": "SandBlock",
    "version": 1
  },
  "userdoc": {
    "kind": "user",
    "methods": {},
    "version": 1
  },
  "storageLayout": {
    "storage": [
      {
        "astId": 7,
        "contract": "contracts/SandBlock.sol:SandBlock",
        "label": "_owner",
        "offset": 0,
        "slot": "0",
        "type": "t_address"
      },
      {
        "astId": 123,
        "contract": "contracts/SandBlock.sol:SandBlock",
        "label": "_status",
        "offset": 0,
        "slot": "1",
        "type": "t_uint256"
      },
      {
        "astId": 290,
        "contract": "contracts/SandBlock.sol:SandBlock",
        "label": "usdtToken",
        "offset": 0,
        "slot": "2",
        "type": "t_contract(IERC20)255"
      },
      {
        "astId": 294,
        "contract": "contracts/SandBlock.sol:SandBlock",
        "label": "admins",
        "offset": 0,
        "slot": "3",
        "type": "t_mapping(t_address,t_bool)"
      },
      {
        "astId": 402,
        "contract": "contracts/SandBlock.sol:SandBlock",
        "label": "projects",
        "offset": 0,
        "slot": "4",
        "type": "t_mapping(t_uint256,t_struct(Project)384_storage)"
      },
      {
        "astId": 409,
        "contract": "contracts/SandBlock.sol:SandBlock",
        "label": "investments",
        "offset": 0,
        "slot": "5",
        "type": "t_mapping(t_uint256,t_mapping(t_address,t_struct(Investment)397_storage))"
      },
      {
        "astId": 414,
        "contract": "contracts/SandBlock.sol:SandBlock",
        "label": "projectInvestors",
        "offset": 0,
        "slot": "6",
        "type": "t_mapping(t_uint256,t_array(t_address)dyn_storage)"
      },
      {
        "astId": 420,
        "contract": "contracts/SandBlock.sol:SandBlock",
        "label": "energyRecords",
        "offset": 0,
        "slot": "7",
        "type": "t_mapping(t_uint256,t_array(t_struct(EnergyRecord)348_storage)dyn_storage)"
      },
      {
        "astId": 422,
        "contract": "contracts/SandBlock.sol:SandBlock",
        "label": "projectCount",
        "offset": 0,
        "slot": "8",
        "type": "t_uint256"
      }
    ],
    "types": {
      "t_address": {
        "encoding": "inplace",
        "label": "address",
        "numberOfBytes": "20"
      },
      "t_array(t_address)dyn_storage": {
        "base": "t_address",
        "encoding": "dynamic_array",
        "label": "address[]",
        "numberOfBytes": "32"
      },
      "t_array(t_struct(EnergyRecord)348_storage)dyn_storage": {
        "base": "t_struct(EnergyRecord)348_storage",
        "encoding": "dynamic_array",
        "label": "struct SandBlock.EnergyRecord[]",
        "numberOfBytes": "32"
      },
      "t_bool": {
        "encoding": "inplace",
        "label": "bool",
        "numberOfBytes": "1"
      },
      "t_contract(IERC20)255": {
        "encoding": "inplace",
        "label": "contract IERC20",
        "numberOfBytes": "20"
      },
      "t_enum(ProjectType)339": {
        "encoding": "inplace",
        "label": "enum SandBlock.ProjectType",
        "numberOfBytes": "1"
      },
      "t_mapping(t_address,t_bool)": {
        "encoding": "mapping",
        "key": "t_address",
        "label": "mapping(address => bool)",
        "numberOfBytes": "32",
        "value": "t_bool"
      },
      "t_mapping(t_address,t_struct(Investment)397_storage)": {
        "encoding": "mapping",
        "key": "t_address",
        "label": "mapping(address => struct SandBlock.Investment)",
        "numberOfBytes": "32",
        "value": "t_struct(Investment)397_storage"
      },
      "t_mapping(t_uint256,t_array(t_address)dyn_storage)": {
        "encoding": "mapping",
        "key": "t_uint256",
        "label": "mapping(uint256 => address[])",
        "numberOfBytes": "32",
        "value": "t_array(t_address)dyn_storage"
      },
      "t_mapping(t_uint256,t_array(t_struct(EnergyRecord)348_storage)dyn_storage)": {
        "encoding": "mapping",
        "key": "t_uint256",
        "label": "mapping(uint256 => struct SandBlock.EnergyRecord[])",
        "numberOfBytes": "32",
        "value": "t_array(t_struct(EnergyRecord)348_storage)dyn_storage"
      },
      "t_mapping(t_uint256,t_mapping(t_address,t_struct(Investment)397_storage))": {
        "encoding": "mapping",
        "key": "t_uint256",
        "label": "mapping(uint256 => mapping(address => struct SandBlock.Investment))",
        "numberOfBytes": "32",
        "value": "t_mapping(t_address,t_struct(Investment)397_storage)"
      },
      "t_mapping(t_uint256,t_struct(Project)384_storage)": {
        "encoding": "mapping",
        "key": "t_uint256",
        "label": "mapping(uint256 => struct SandBlock.Project)",
        "numberOfBytes": "32",
        "value": "t_struct(Project)384_storage"
      },
      "t_string_storage": {
        "encoding": "bytes",
        "label": "string",
        "numberOfBytes": "32"
      },
      "t_struct(EnergyRecord)348_storage": {
        "encoding": "inplace",
        "label": "struct SandBlock.EnergyRecord",
        "members": [
          {
            "astId": 341,
            "contract": "contracts/SandBlock.sol:SandBlock",
            "label": "energyKWh",
            "offset": 0,
            "slot": "0",
            "type": "t_uint256"
          },
          {
            "astId": 343,
            "contract": "contracts/SandBlock.sol:SandBlock",
            "label": "cost",
            "offset": 0,
            "slot": "1",
            "type": "t_uint256"
          },
          {
            "astId": 345,
            "contract": "contracts/SandBlock.sol:SandBlock",
            "label": "timestamp",
            "offset": 0,
            "slot": "2",
            "type": "t_uint256"
          },
          {
            "astId": 347,
            "contract": "contracts/SandBlock.sol:SandBlock",
            "label": "notes",
            "offset": 0,
            "slot": "3",
            "type": "t_string_storage"
          }
        ],
        "numberOfBytes": "128"
      },
      "t_struct(Investment)397_storage": {
        "encoding": "inplace",
        "label": "struct SandBlock.Investment",
        "members": [
          {
            "astId": 386,
            "contract": "contracts/SandBlock.sol:SandBlock",
            "label": "principalAmount",
            "offset": 0,
            "slot": "0",
            "type": "t_uint256"
          },
          {
            "astId": 388,
            "contract": "contracts/SandBlock.sol:SandBlock",
            "label": "principalRemaining",
            "offset": 0,
            "slot": "1",
            "type": "t_uint256"
          },
          {
            "astId": 390,
            "contract": "contracts/SandBlock.sol:SandBlock",
            "label": "lastInterestClaim",
            "offset": 0,
            "slot": "2",
            "type": "t_uint256"
          },
          {
            "astId": 392,
            "contract": "contracts/SandBlock.sol:SandBlock",
            "label": "lastPrincipalClaim",
            "offset": 0,
            "slot": "3",
            "type": "t_uint256"
          },
          {
            "astId": 394,
            "contract": "contracts/SandBlock.sol:SandBlock",
            "label": "totalInterestClaimed",
            "offset": 0,
            "slot": "4",
            "type": "t_uint256"
          },
          {
            "astId": 396,
            "contract": "contracts/SandBlock.sol:SandBlock",
            "label": "totalPrincipalClaimed",
            "offset": 0,
            "slot": "5",
            "type": "t_uint256"
          }
        ],
        "numberOfBytes": "192"
      },
      "t_struct(Project)384_storage": {
        "encoding": "inplace",
        "label": "struct SandBlock.Project",
        "members": [
          {
            "astId": 350,
            "contract": "contracts/SandBlock.sol:SandBlock",
            "label": "id",
            "offset": 0,
            "slot": "0",
            "type": "t_uint256"
          },
          {
            "astId": 352,
            "contract": "contracts/SandBlock.sol:SandBlock",
            "label": "name",
            "offset": 0,
            "slot": "1",
            "type": "t_string_storage"
          },
          {
            "astId": 354,
            "contract": "contracts/SandBlock.sol:SandBlock",
            "label": "description",
            "offset": 0,
            "slot": "2",
            "type": "t_string_storage"
          },
          {
            "astId": 356,
            "contract": "contracts/SandBlock.sol:SandBlock",
            "label": "location",
            "offset": 0,
            "slot": "3",
            "type": "t_string_storage"
          },
          {
            "astId": 359,
            "contract": "contracts/SandBlock.sol:SandBlock",
            "label": "projectType",
            "offset": 0,
            "slot": "4",
            "type": "t_enum(ProjectType)339"
          },
          {
            "astId": 361,
            "contract": "contracts/SandBlock.sol:SandBlock",
            "label": "targetAmount",
            "offset": 0,
            "slot": "5",
            "type": "t_uint256"
          },
          {
            "astId": 363,
            "contract": "contracts/SandBlock.sol:SandBlock",
            "label": "totalInvested",
            "offset": 0,
            "slot": "6",
            "type": "t_uint256"
          },
          {
            "astId": 365,
            "contract": "contracts/SandBlock.sol:SandBlock",
            "label": "energyProduced",
            "offset": 0,
            "slot": "7",
            "type": "t_uint256"
          },
          {
            "astId": 367,
            "contract": "contracts/SandBlock.sol:SandBlock",
            "label": "totalEnergyCost",
            "offset": 0,
            "slot": "8",
            "type": "t_uint256"
          },
          {
            "astId": 369,
            "contract": "contracts/SandBlock.sol:SandBlock",
            "label": "projectOwner",
            "offset": 0,
            "slot": "9",
            "type": "t_address"
          },
          {
            "astId": 371,
            "contract": "contracts/SandBlock.sol:SandBlock",
            "label": "isActive",
            "offset": 20,
            "slot": "9",
            "type": "t_bool"
          },
          {
            "astId": 373,
            "contract": "contracts/SandBlock.sol:SandBlock",
            "label": "isCompleted",
            "offset": 21,
            "slot": "9",
            "type": "t_bool"
          },
          {
            "astId": 375,
            "contract": "contracts/SandBlock.sol:SandBlock",
            "label": "isFailed",
            "offset": 22,
            "slot": "9",
            "type": "t_bool"
          },
          {
            "astId": 377,
            "contract": "contracts/SandBlock.sol:SandBlock",
            "label": "createdAt",
            "offset": 0,
            "slot": "10",
            "type": "t_uint256"
          },
          {
            "astId": 379,
            "contract": "contracts/SandBlock.sol:SandBlock",
            "label": "fundingDeadline",
            "offset": 0,
            "slot": "11",
            "type": "t_uint256"
          },
          {
            "astId": 381,
            "contract": "contracts/SandBlock.sol:SandBlock",
            "label": "fundingCompletedAt",
            "offset": 0,
            "slot": "12",
            "type": "t_uint256"
          },
          {
            "astId": 383,
            "contract": "contracts/SandBlock.sol:SandBlock",
            "label": "constructionCompletedAt",
            "offset": 0,
            "slot": "13",
            "type": "t_uint256"
          }
        ],
        "numberOfBytes": "448"
      },
      "t_uint256": {
        "encoding": "inplace",
        "label": "uint256",
        "numberOfBytes": "32"
      }
    }
  }
}